:020000040800F2
:100000006006002099010008A1010008A301000872
:10001000A5010008A7010008A901000800000000D0
:10002000000000000000000000000000AB0100081C
:10003000AD01000800000000AF010008B101000898
:10004000B3010008B3010008B3010008B3010008C0
:10005000B3010008B3010008B3010008B3010008B0
:10006000B3010008B3010008B3010008B3010008A0
:10007000B3010008B3010008B3010008B301000890
:10008000B3010008B3010008B3010008B301000880
:10009000B3010008B3010008B3010008B301000870
:1000A000B3010008C1080008B3010008B30100084B
:1000B000B3010008750A0008B3010008B301000885
:1000C000B3010008B3010008B3010008B301000840
:1000D000B3010008B3010008B3010008B301000830
:1000E000B3010008B3010008B301000800F002F8F2
:1000F00000F042F814A696E8000CB244B344DA4586
:1001000001D100F039F8BAE80F000FA696E83000E8
:10011000A5EB040504EB0607AAEB0704A7F101070A
:100120004FEA15154FEA3414A4F10104AC4201D38F
:1001300000F022F813F0010F18BFFB1A43F001037F
:1001400000F001F8DBE71847281100003811000023
:10015000704700000023002400250026103A28BF25
:1001600078C1FBD8520728BF30C148BF0B60704729
:100170001FB51FBD10B510BD00F031F81146FFF7D7
:10018000F7FF01F051F800F04FF803B4FFF7F2FF6A
:1001900003BC00F057F800000948804709480047B1
:1001A000FEE7FEE7FEE7FEE7FEE7FEE7FEE7FEE727
:1001B000FEE7FEE704480549054A064B7047000084
:1001C00059080008ED0000086000002060060020CB
:1001D000600200206002002070477047704775463B
:1001E00000F02CF8AE4605006946534620F00700A3
:1001F000854618B020B5FFF7DDFFBDE820404FF081
:1002000000064FF000074FF000084FF0000BAC461F
:10021000ACE8C009ACE8C009ACE8C009ACE8C0096A
:1002200021F007018D46704710B50446AFF30080FA
:100230002046BDE81040FFF7A8BF00000048704707
:100240000000002001491820ABBEFEE72600020096
:100250007047000080B58CB04FF40060012103911D
:1002600000F032FA0399042000F02EFA03990846B0
:1002700000F02AFA18208DF815004FF47060ADF8E0
:10028000120003208DF8140040F60000C4F20100B3
:100290000DF1120100F046F844F61F60ADF82A0097
:1002A0004720ADF8260000200090ADF82800ADF8FA
:1002B0002C008DF82E0042F60040C4F2010002909E
:1002C0000DF1260100F0DEFE009A029803996023EA
:1002D000ADF81630ADF81E20ADF8181040F2DC5124
:1002E000ADF81C100DF11601019100F061FC0199AF
:1002F000029800F00FFD0199029800F0ABFD019902
:10030000029800F047FE0298039A114600F036FC6E
:100310000298039900F0EAFB0298039900F0D0FBE1
:100320000CB080BD88B00790069100200590049025
:1003300003900290019000900698C07800F00F00A2
:1003400005900698C078C006002806D5FFE70698F5
:100350008178059808430590FFE706980078002803
:100360004BD0FFE707980068019000200390FFE75B
:10037000039807283DD8FFE70399012088400290A1
:1003800006980088029908400490049802998842CF
:100390002AD1FFE703988000029002990F2088403D
:1003A000009000990198884301900598029900FAFD
:1003B00001F10198084301900698C078282806D1D9
:1003C000FFE7039901208840079948610BE00698F0
:1003D000C078482806D1FFE7039901208840079993
:1003E0000861FFE7FFE7FFE7FFE7039801300390AD
:1003F000BEE7019807990860FFE706980088B0F506
:10040000807F50DBFFE70798406801900020039051
:10041000FFE70398072842D8FFE7039800F1080197
:1004200001208840029006980088029908400490B4
:100430000498029988422DD1FFE70398800002902A
:1004400002990F20884000900099019888430190FC
:100450000598029900FA01F1019808430190069865
:10046000C078282808D1FFE7039800F1080101208F
:10047000884007994861FFE70698C078482808D166
:10048000FFE7039800F108010120884007990861FF
:10049000FFE7FFE7FFE7039801300390B9E7019812
:1004A00007994860FFE708B07047000082B00190EC
:1004B000ADF80210BDF802000199486102B0704722
:1004C00082B00190ADF80210BDF8020001990861F8
:1004D00002B0704780B58CB002200121039100F07A
:1004E000D7F80399042000F0EFF80399084600F0CC
:1004F000EBF818208DF81500C020ADF8120003208D
:100500008DF8140040F60000C4F201000DF1120154
:10051000FFF708FF6320ADF82A004720ADF826005A
:1005200000200090ADF82800ADF82C008DF82E00CA
:1005300040F20040C4F2000002900DF1260100F0EC
:10054000A1FD009A029803996023ADF81630ADF82A
:100550001E20ADF8181040F2DC51ADF81C100DF162
:100560001601019100F024FB0199029800F0D2FBE2
:100570000199029800F06EFC0199029800F00AFDC2
:100580000298039A114600F0F9FA0298039900F0D4
:10059000ADFA0298039900F093FA0CB080BD000008
:1005A00080B584B019208DF80C00002000908DF8E3
:1005B0000D008DF80E00012001908DF80F0003A8AA
:1005C000029000F011F8009A019902981D238DF80D
:1005D0000C308DF80D208DF80E208DF80F1000F0E6
:1005E00003F804B080BD000084B0039000200290A6
:1005F00001900F2000900398C078B8B3FFE74EF643
:100600000C50CEF200000068C043C0F302200290FC
:100610000298C0F10400019000980299C84000902F
:100620000398407801998840029003988078009957
:10063000014002980843029002980001029002983B
:10064000039909784EF20042CEF2000288540398D2
:10065000027802F01F01012088401C2101EAD2012A
:100660004EF20012CEF2000288500EE0039802789B
:1006700002F01F01012088401C2101EAD2014EF244
:100680008012CEF200028850FFE704B070470000ED
:1006900082B001908DF803109DF8030048B1FFE788
:1006A000019A41F21C01C4F202010868104308607B
:1006B00008E0019A41F21C01C4F20201086890436B
:1006C0000860FFE702B0704782B001908DF8031018
:1006D0009DF8030048B1FFE7019A41F21801C4F206
:1006E000020108681043086008E0019A41F218010D
:1006F000C4F20201086890430860FFE702B0704747
:1007000080B500F001F880BD84B000200390029015
:1007100041F20001C4F20201086840F48030086030
:10072000FFE741F20000C4F20200006800F400306C
:100730000290039801300390FFE702990020019096
:1007400039B9FFE70398B0F5A06018BF0120019008
:10075000FFE70198C0070028E3D1FFE741F200005E
:10076000C4F2020000688003002803D5FFE70120DF
:10077000029002E000200290FFE70298012851D188
:10078000FFE742F20001C4F20201086840F01000E5
:100790000860086820F007000860086840F0020060
:1007A000086041F20401C4F2020100910868086087
:1007B00008680860086840F480600860086820F4F1
:1007C0007C100860086840F4E810086041F20001FD
:1007D000C4F20201086840F080700860FFE741F24F
:1007E0000000C4F2020000688001002801D4FFE785
:1007F000F5E741F20401C4F20201086820F00300A9
:100800000860086840F002000860FFE741F2040059
:10081000C4F20200006800F00C00082801D0FFE7D5
:10082000F4E700E0FFE704B07047000081B0ADF8E6
:100830000200ADF80010BDF8020040F23441C4F2ED
:1008400000010880BDF8000040F23841C4F2000108
:10085000088001B07047000080B541F20002C4F288
:100860000202106840F00100106041F20401C4F27D
:10087000020108680023CFF6FF03184008601068E3
:100880004FF6FF73CFF6F66318401060106820F43F
:1008900080201060086820F4FE00086041F2080122
:1008A000C4F202014FF41F000860FFF729FF4EF663
:1008B0000851CEF200014FF00060086080BD0000DA
:1008C00080B590B042F60040C4F20100012100F072
:1008D00027F9002800F0CB80FFE742F63441C4F24C
:1008E00001010C914FF448700190088064200F9032
:1008F00000F06AFC0C9A0F984FF4FA710B9111807A
:1009000000F062FC0C9A0F984FF47A7102911180FA
:1009100000F05AFC0C9A0F9840F2DC5103911180C0
:1009200000F052FC0C9A0F9840F2A46104911180DF
:1009300000F04AFC0F9842F63842C4F201020892D5
:1009400040F6FC010591118000F03EFC089A0F98DA
:100950004FF496610691118000F036FC0F9842F634
:100960003C42C4F201020A924FF4FA6107911180ED
:1009700000F02AFC089A0B990F98118000F024FCD3
:100980000C9A0F9840F26C710991118000F01CFCD8
:100990000A9A0B984FF42F710D91118000F014FCFE
:1009A0000C9A0D990F98118000F00EFC0B990F987E
:1009B00042F64042C4F201020E92118000F004FCA3
:1009C00001990C9A0F98118000F0FEFB0B990C9A7C
:1009D0000F98118000F0F8FB02990C9A0F98118083
:1009E00000F0F2FB03990C9A0F98118000F0ECFBD9
:1009F00004990C9A0F98118000F0E6FB0599089A6B
:100A00000F98118000F0E0FB0699089A0F9811806A
:100A100000F0DAFB07990A9A0F98118000F0D4FBD6
:100A2000089A0B990F98118000F0CEFB09990C9A47
:100A30000F98118000F0C8FB0A9A0B980D9911804D
:100A400000F0C2FB0C9A0D990F98118000F0BCFBCE
:100A50000E9A0F9840F6C411118000F0B5FB42F6D3
:100A60000040C4F20100012100F01EF8FFE710B0C1
:100A700080BD000080B540F20040C4F200000121BA
:100A800000F04EF870B1FFE700F0BEFB46210846CB
:100A9000FFF7CCFE40F20040C4F20000012100F05C
:100AA00003F8FFE780BD000082B00190ADF80210AE
:100AB000BDF80200C0430199088202B070470000EF
:100AC00082B001908DF803109DF8030030B1FFE76C
:100AD0000199088840F00100088005E00199088824
:100AE00020F001000880FFE702B0704782B001905B
:100AF0008DF803109DF8030040B1FFE70199B1F8AC
:100B0000440040F40040A1F8440007E00199B1F826
:100B100044006FF3DF30A1F84400FFE702B07047F4
:100B200083B00290ADF8061000208DF80500ADF8F6
:100B30000200ADF800000298008ABDF806100840D7
:100B4000ADF8020002988089BDF806100840ADF8A3
:100B50000000BDF8020040B1FFE7BDF8000020B181
:100B6000FFE701208DF8050003E000208DF8050067
:100B7000FFE79DF8050003B07047000082B00190C8
:100B8000ADF802108DF801209DF8010038B1FFE7A3
:100B9000BDF80220019988891043888106E0BDF8DC
:100BA00002200199888990438881FFE702B070474D
:100BB00084B0039002910020ADF80600ADF8040067
:100BC000ADF802000399088C20F001000884039816
:100BD000008CADF8040003988088ADF802000398FB
:100BE000008BADF80600BDF8060020F07000ADF8EF
:100BF0000600BDF8060020F00300ADF806000298DC
:100C00000188BDF806000843ADF80600BDF80400F1
:100C100020F00200ADF8040002980189BDF804003C
:100C20000843ADF8040002984188BDF80400084369
:100C3000ADF80400039842F60041C4F20101884275
:100C400020D0FFE7039843F20041C4F2010188423B
:100C500018D0FFE7039844F20001C4F20101884272
:100C600010D0FFE7039844F20041C4F2010188422A
:100C700008D0FFE7039844F60001C4F2010188425E
:100C800035D1FFE7BDF8040020F00800ADF80400FE
:100C900002984189BDF804000843ADF80400BDF88E
:100CA000040020F00400ADF8040002988188BDF82B
:100CB00004000843ADF80400BDF8020020F4807081
:100CC000ADF80200BDF8020020F40070ADF802009B
:100CD00002988189BDF802000843ADF8020002982D
:100CE000C189BDF802000843ADF80200FFE7BDF876
:100CF000020003998880BDF80600039908830298D2
:100D0000C08803998886BDF804000399088404B05C
:100D10007047000084B0039002910020ADF80600F7
:100D2000ADF80400ADF802000399088C20F0100023
:100D300008840398008CADF8040003988088ADF80F
:100D400002000398008BADF80600BDF8060020F401
:100D5000E040ADF80600BDF8060020F44070ADF8A4
:100D6000060002980188BDF8060040EA0120ADF8AF
:100D70000600BDF8040020F02000ADF80400029841
:100D80000189BDF8040040EA0110ADF804000298A2
:100D90004188BDF8040040EA0110ADF80400039852
:100DA00042F60041C4F20101884208D0FFE70398EF
:100DB00043F20041C4F20101884239D1FFE7BDF896
:100DC000040020F08000ADF8040002984189BDF8CD
:100DD000040040EA0110ADF80400BDF8040020F062
:100DE0004000ADF8040002988188BDF8040040EA94
:100DF0000110ADF80400BDF8020020F48060ADF8E9
:100E00000200BDF8020020F40060ADF80200029874
:100E10008189BDF8020040EA8100ADF80200029825
:100E2000C189BDF8020040EA8100ADF80200FFE789
:100E3000BDF8020003998880BDF806000399088375
:100E40000298C08803990887BDF8040003990884B4
:100E500004B0704784B0039002910020ADF8060002
:100E6000ADF80400ADF802000399088C20F48070FE
:100E700008840398008CADF8040003988088ADF8CE
:100E800002000398808BADF80600BDF8060020F044
:100E90007000ADF80600BDF8060020F00300ADF8C4
:100EA000060002980188BDF806000843ADF8060068
:100EB000BDF8040020F40070ADF804000298018928
:100EC000BDF8040040EA0120ADF804000298418812
:100ED000BDF8040040EA0120ADF80400039842F692
:100EE0000041C4F20101884208D0FFE7039843F2B1
:100EF0000041C4F20101884239D1FFE7BDF8040086
:100F000020F40060ADF8040002984189BDF80400A7
:100F100040EA0120ADF80400BDF8040020F4806030
:100F2000ADF8040002988188BDF8040040EA012071
:100F3000ADF80400BDF8020020F48050ADF80200C6
:100F4000BDF8020020F40050ADF80200029881893B
:100F5000BDF8020040EA0110ADF802000298C18914
:100F6000BDF8020040EA0110ADF80200FFE7BDF84D
:100F7000020003998880BDF80600039988830298CF
:100F8000C08803998887BDF804000399088404B0D9
:100F90007047000084B0039002910020ADF8060075
:100FA000ADF80400ADF802000399088C20F48050DD
:100FB00008840398008CADF8040003988088ADF88D
:100FC00002000398808BADF80600BDF8060020F4FF
:100FD000E040ADF80600BDF8060020F44070ADF822
:100FE000060002980188BDF8060040EA0120ADF82D
:100FF0000600BDF8040020F40050ADF8040002988B
:101000000189BDF8040040EA0130ADF804000298FF
:101010004188BDF8040040EA0130ADF804000398AF
:1010200042F60041C4F20101884208D0FFE703986C
:1010300043F20041C4F2010188420FD1FFE7BDF83D
:10104000020020F48040ADF8020002988189BDF8CA
:10105000020040EA8110ADF80200FFE7BDF802008F
:1010600003998880BDF80600039988830298C08898
:101070000399A1F84000BDF804000399088404B066
:101080007047000083B0029001910020ADF802008B
:1010900002980088ADF80200029842F60041C4F2BE
:1010A0000101884225D0FFE7029843F20041C4F2D3
:1010B000010188421DD0FFE70298B0F1804F18D09F
:1010C000FFE7029840F20041C4F20001884210D0CC
:1010D000FFE7029840F60001C4F20001884208D000
:1010E000FFE7029840F60041C4F2000188420ED1A9
:1010F000FFE7BDF8020020F07000ADF80200019893
:101100004188BDF802000843ADF80200FFE70298ED
:1011100041F20001C4F20001884216D0FFE70298B4
:1011200041F20041C4F2000188420ED0FFE7BDF851
:10113000020020F44070ADF802000198C188BDF8AB
:1011400002000843ADF80200FFE7BDF80200029973
:101150000880019880880299888501980088029902
:101160000885029842F60041C4F20101884220D06D
:10117000FFE7029843F20041C4F20101884218D00F
:10118000FFE7029844F20001C4F20101884210D046
:10119000FFE7029844F20041C4F20101884208D0FE
:1011A000FFE7029844F60001C4F20101884205D12C
:1011B000FFE70198007A02990886FFE7029901206B
:1011C000888203B07047000083B002900020019035
:1011D000FFE701980299884213DAFFE700200090A8
:1011E000FFE7009842F6FE21884205DCFFE7FFE7B3
:1011F000009801300090F4E7FFE70198013001907A
:10120000E7E703B07047000080B582B041F200000C
:10121000C4F2010001900521FFF748F901980A2165
:10122000FFF74EF902B080BD80B582B0002001907A
:10123000FFF750F9FFF70EF8FFF7B2F941F2180186
:10124000C4F20201086840F01000086010208DF818
:1012500003000F20ADF8000003208DF8020041F2DA
:101260000000C4F201006946FFF75CF8FFE7FEE703
:1012700080120008000000206006000054010008F1
:040000050800019955
:00000001FF
