:020000040800F2
:1000000060060020DD010008E5010008E7010008A6
:10001000E9010008EB010008ED0100080000000004
:10002000000000000000000000000000EF010008D8
:10003000F101000800000000F3010008C5040008F9
:10004000F7010008F7010008F7010008F7010008B0
:10005000F7010008F7010008F7010008F7010008A0
:10006000F7010008F7010008F7010008F701000890
:10007000F7010008F7010008F7010008F701000880
:10008000F7010008F7010008F7010008F701000870
:10009000F7010008F7010008F7010008F701000860
:1000A000F7010008F7010008F7010008F701000850
:1000B000F7010008F7010008F7010008F701000840
:1000C000F7010008F7010008F7010008F701000830
:1000D000F7010008F7010008F7010008F701000820
:1000E000F7010008F7010008F7010008F701000810
:1000F000F7010008F7010008F7010008F701000800
:10010000F7010008F7010008F7010008F7010008EF
:10011000F7010008F7010008F7010008F7010008DF
:10012000F7010008F7010008F7010008F7010008CF
:1001300000F002F800F042F814A696E8000CB24471
:10014000B344DA4501D100F039F8BAE80F000FA640
:1001500096E83000A5EB040504EB0607AAEB0704BC
:10016000A7F101074FEA15154FEA3414A4F1010471
:10017000AC4201D300F022F813F0010F18BFFB1AB4
:1001800043F0010300F001F8DBE71847B006000078
:10019000C006000070470000002300240025002650
:1001A000103A28BF78C1FBD8520728BF30C148BFDA
:1001B0000B6070471FB51FBD10B510BD00F031F8C2
:1001C0001146FFF7F7FF00F0EBFA00F04FF803B429
:1001D000FFF7F2FF03BC00F057F800000948804722
:1001E00009480047FEE7FEE7FEE7FEE7FEE7FEE719
:1001F000FEE7FEE7FEE7FEE704480549054A064B31
:1002000070470000FD040008310100086000002074
:1002100060060020600200206002002070477047E6
:100220007047754600F02CF8AE4605006946534607
:1002300020F00700854618B020B5FFF7DDFFBDE8C8
:1002400020404FF000064FF000074FF000084FF03D
:10025000000BAC46ACE8C009ACE8C009ACE8C0098A
:10026000ACE8C00921F007018D46704710B504467F
:10027000AFF300802046BDE81040FFF7A8BF0000A4
:10028000004870470000002001491820ABBEFEE77F
:10029000260002007047000080B582B00190FFE7A1
:1002A000019838B1FFE700F007F8FFE7019801383F
:1002B0000190F5E702B080BD4EF21401CEF20001CC
:1002C00041F63F10C0F2010008604EF21801CEF274
:1002D000000100200860FFE74EF21000CEF200009F
:1002E0000068C003002801D4FFE7F5E7704700006D
:1002F00084B0ADF80E00ADF80C100220ADF8060089
:10030000BDF80E0001280AD1FFE7BDF8061040F63F
:100310000000C4F2010000EB810002902FE0BDF864
:100320000E0002280AD1FFE7BDF8061040F6004093
:10033000C4F2010000EB810002901FE0BDF80E0046
:1003400003280AD1FFE7BDF8061041F20000C4F20D
:10035000010000EB810002900FE0BDF80E000428C0
:100360000AD1FFE7BDF8061041F20040C4F20100D7
:1003700000EB81000290FFE7FFE7FFE7FFE702984D
:100380000068BDF80C1001228A401040C84000905F
:10039000009804B07047000080B500F001F880BDFF
:1003A00084B000200390029041F20001C4F20201E7
:1003B000086840F480300860FFE741F20000C4F2B2
:1003C0000200006800F400300290039801300390AE
:1003D000FFE702990020019039B9FFE70398B0F5D3
:1003E000A06018BF01200190FFE70198C007002816
:1003F000E3D1FFE741F20000C4F20200006880038D
:10040000002803D5FFE70120029002E000200290BF
:10041000FFE70298012851D1FFE742F20001C4F240
:100420000201086840F010000860086820F007002A
:100430000860086840F00200086041F20401C4F25C
:10044000020100910868086008680860086840F4C4
:1004500080600860086820F47C100860086840F438
:10046000E810086041F20001C4F20201086840F09F
:1004700080700860FFE741F20000C4F202000068EB
:100480008001002801D4FFE7F5E741F20401C4F23E
:100490000201086820F003000860086840F00200CC
:1004A0000860FFE741F20400C4F20200006800F0B7
:1004B0000C00082801D0FFE7F4E700E0FFE704B0F4
:1004C0007047000080B501210846FFF711FF0128A1
:1004D00009D1FFE70320072100F044F84FF47A70B8
:1004E000FFF7DAFE08E003200C2100F03BF84FF4A0
:1004F0007A70FFF7D1FEFFE780BD000080B541F2C2
:100500000002C4F20202106840F00100106041F2E3
:100510000401C4F2020108680023CFF6FF0318406B
:10052000086010684FF6FF73CFF6F663184010604E
:10053000106820F480201060086820F4FE00086035
:1005400041F20801C4F202014FF41F000860FFF7F6
:1005500023FF4EF60851CEF200014FF00060086014
:1005600080BD000080B582B0ADF80600ADF8041083
:10057000BDF80600BDF80410FFF7BAFE40B1FFE772
:10058000BDF80600BDF80410002200F00BF807E0EB
:10059000BDF80600BDF80410012200F003F8FFE7E3
:1005A00002B080BD84B0ADF80E00ADF80C10ADF80F
:1005B0000A200320ADF80200BDF80E0001280AD180
:1005C000FFE7BDF8021040F60000C4F2010000EBA6
:1005D000810001902FE0BDF80E0002280AD1FFE74C
:1005E000BDF8021040F60040C4F2010000EB8100AB
:1005F00001901FE0BDF80E0003280AD1FFE7BDF807
:10060000021041F20000C4F2010000EB81000190F1
:100610000FE0BDF80E0004280AD1FFE7BDF8021074
:1006200041F20040C4F2010000EB81000190FFE7BD
:10063000FFE7FFE7FFE7BDF80A0058B1FFE7BDF8A5
:100640000A00BDF80C1000FA01F201990868104385
:10065000086009E0BDF80C10012000FA01F20199D0
:10066000086890430860FFE704B0704784B0ADF8B5
:100670000E00ADF80C10ADF80A20ADF80830BDF84A
:100680000C00ADF802000020ADF80000BDF80C0031
:10069000082809DBFFE7BDF802000838ADF80200C2
:1006A0000120ADF80000FFE7BDF80E00012812D1CF
:1006B000FFE741F21801C4F20201086840F00400AB
:1006C0000860BDF8001040F60000C4F2010000EB25
:1006D0008100019047E0BDF80E00022812D1FFE72B
:1006E00041F21801C4F20201086840F008000860F5
:1006F000BDF8001040F60040C4F2010000EB81009C
:1007000001902FE0BDF80E00032812D1FFE741F25F
:100710001801C4F20201086840F010000860BDF83A
:10072000001041F20000C4F2010000EB81000190D2
:1007300017E0BDF80E00042812D1FFE741F21801BE
:10074000C4F20201086840F020000860BDF8001003
:1007500041F20040C4F2010000EB81000190FFE78C
:10076000FFE7FFE7FFE7BDF8020081000F2000FA76
:1007700001F20199086890430860BDF80A00BDF8CD
:1007800002108A009040BDF808100232914040EA01
:100790000102019908681043086004B07047000026
:1007A00080B584B000200190039000F02FF8019AEA
:1007B000012102230846FFF759FF019B0C21032268
:1007C00000921046FFF752FF009A019B0721029109
:1007D0001046FFF74BFF019A029872B64EF21001D5
:1007E000CEF200010A604EF2140CCEF2000C4DF66F
:1007F000FF43C0F26D03CCF800304EF21803CEF286
:1008000000031A60086062B6FFE7FEE74EF21001CF
:10081000CEF20001002008604EF21403CEF2000375
:100820006FF07F421A604EF21802CEF200021060A2
:10083000086840F005000860704700004C08000898
:0C08400000000020600600009801000885
:04000005080001DD11
:00000001FF
