:020000040800F2
:100000006806002099010008A1010008A30100086A
:10001000A5010008A7010008A901000800000000D0
:10002000000000000000000000000000AB0100081C
:10003000AD01000800000000AF010008B101000898
:10004000B3010008B3010008B3010008B3010008C0
:10005000B3010008B3010008B3010008B3010008B0
:10006000B3010008B3010008B3010008B3010008A0
:10007000B3010008B3010008B3010008B301000890
:10008000B3010008B3010008B3010008B301000880
:10009000B3010008B3010008B3010008B301000870
:1000A000B3010008B3010008B3010008B301000860
:1000B000B3010008B3010008B3010008B301000850
:1000C000B3010008B3010008B3010008B301000840
:1000D000B3010008B3010008B3010008B301000830
:1000E000B3010008B3010008B301000800F002F8F2
:1000F00000F042F814A696E8000CB244B344DA4586
:1001000001D100F039F8BAE80F000FA696E83000E8
:10011000A5EB040504EB0607AAEB0704A7F101070A
:100120004FEA15154FEA3414A4F10104AC4201D38F
:1001300000F022F813F0010F18BFFB1A43F001037F
:1001400000F001F8DBE71847381C0000481C0000ED
:10015000704700000023002400250026103A28BF25
:1001600078C1FBD8520728BF30C148BF0B60704729
:100170001FB51FBD10B510BD00F031F81146FFF7D7
:10018000F7FF01F085F800F04FF803B4FFF7F2FF36
:1001900003BC00F057F800000948804709480047B1
:1001A000FEE7FEE7FEE7FEE7FEE7FEE7FEE7FEE727
:1001B000FEE7FEE704480549054A064B7047000084
:1001C00041080008ED0000086800002068060020D3
:1001D000680200206802002070477047704775462B
:1001E00000F02CF8AE4605006946534620F00700A3
:1001F000854618B020B5FFF7DDFFBDE820404FF081
:1002000000064FF000074FF000084FF0000BAC461F
:10021000ACE8C009ACE8C009ACE8C009ACE8C0096A
:1002200021F007018D46704710B50446AFF30080FA
:100230002046BDE81040FFF7A8BF00000048704707
:100240000000002001491820ABBEFEE72600020096
:100250007047000088B00790069100200590049038
:1002600003900290019000900698C07800F00F0073
:1002700005900698C078C006002806D5FFE70698C6
:100280008178059808430590FFE7069800780028D4
:100290004BD0FFE707980068019000200390FFE72C
:1002A000039807283DD8FFE7039901208840029072
:1002B00006980088029908400490049802998842A0
:1002C0002AD1FFE703988000029002990F2088400E
:1002D000009000990198884301900598029900FACE
:1002E00001F10198084301900698C078282806D1AA
:1002F000FFE7039901208840079948610BE00698C1
:10030000C078482806D1FFE7039901208840079963
:100310000861FFE7FFE7FFE7FFE70398013003907D
:10032000BEE7019807990860FFE706980088B0F5D6
:10033000807F50DBFFE70798406801900020039022
:10034000FFE70398072842D8FFE7039800F1080168
:100350000120884002900698008802990840049085
:100360000498029988422DD1FFE7039880000290FB
:1003700002990F20884000900099019888430190CD
:100380000598029900FA01F1019808430190069836
:10039000C078282808D1FFE7039800F10801012060
:1003A000884007994861FFE70698C078482808D137
:1003B000FFE7039800F108010120884007990861D0
:1003C000FFE7FFE7FFE7039801300390B9E70198E3
:1003D00007994860FFE708B07047000082B00190BD
:1003E000ADF80210BDF802000199486102B07047F3
:1003F00082B00190ADF80210BDF8020001990861C9
:1004000002B0704780B584B00390ADF80A108DF843
:1004100009208DF80830039840F60001C4F201016C
:10042000884205D1FFE70420012100F09DF8FFE795
:10043000039840F60041C4F20101884205D1FFE76C
:100440000820012100F090F8FFE7039841F2000135
:10045000C4F20101884205D1FFE71020012100F01C
:1004600083F8FFE7BDF80A00ADF804009DF8090025
:100470008DF807009DF808008DF80600039801A983
:10048000FFF7E8FE04B080BD84B003900020029026
:1004900001900F2000900398C078B8B3FFE74EF6A4
:1004A0000C50CEF200000068C043C0F3022002905E
:1004B0000298C0F10400019000980299C840009091
:1004C00003984078019988400290039880780099B9
:1004D000014002980843029002980001029002989D
:1004E000039909784EF20042CEF200028854039834
:1004F000027802F01F01012088401C2101EAD2018C
:100500004EF20012CEF2000288500EE003980278FC
:1005100002F01F01012088401C2101EAD2014EF2A5
:100520008012CEF200028850FFE704B0704700004E
:1005300082B001908DF803109DF8030048B1FFE7E9
:10054000019A41F21C01C4F20201086810430860DC
:1005500008E0019A41F21C01C4F2020108689043CC
:100560000860FFE702B0704782B001908DF8031079
:100570009DF8030048B1FFE7019A41F21801C4F267
:10058000020108681043086008E0019A41F218016E
:10059000C4F20201086890430860FFE702B07047A8
:1005A00086B005900020049003900290019041F2E3
:1005B0000400C4F20200006800F00C0004900498EB
:1005C000009040B1FFE7009804280BD0FFE70098A7
:1005D00008280ED047E0059941F20020C0F27A00C9
:1005E000086047E0059941F20020C0F27A000860F7
:1005F00040E041F20400C4F20200016801F470110D
:100600000391006800F4803002900399022000EB0F
:1006100091400390029848B9FFE7039840F6001113
:10062000C0F23D014843059908601BE041F2040017
:10063000C4F2020000688003002809D5FFE7039890
:1006400040F60011C0F23D0148430599086008E0FA
:10065000039841F20021C0F27A01484305990860ED
:10066000FFE7FFE706E0059941F20020C0F27A00BB
:100670000860FFE741F20400C4F20200016801F0E3
:10068000F0010491049909090491049A41F66E510C
:10069000C0F600018A5C0192059B1A68DDF804C06F
:1006A00022FA0CF25A60026802F4E0620492049AA0
:1006B000120A0492049A8A5C0192059B5A68DDF83A
:1006C00004C022FA0CF29A60026802F460520492AA
:1006D000049AD20A0492049A895C0191059A51689D
:1006E000019BD940D160006800F440400490049818
:1006F000800B0490049941F66A50C0F60000405CFB
:1007000001900599C868019AB0FBF2F0086106B043
:100710007047000080B500F001F880BD84B0002073
:100720000390029041F20001C4F20201086840F413
:1007300080300860FFE741F20000C4F20200006868
:1007400000F400300290039801300390FFE7029913
:100750000020019039B9FFE70398B0F5A06018BFF9
:1007600001200190FFE70198C0070028E3D1FFE7CF
:1007700041F20000C4F2020000688003002803D5A3
:10078000FFE70120029002E000200290FFE70298BC
:10079000012851D1FFE742F20001C4F202010868CA
:1007A00040F010000860086820F007000860086842
:1007B00040F00200086041F20401C4F2020100911D
:1007C0000868086008680860086840F4806008608D
:1007D000086820F47C100860086840F4E81008609D
:1007E00041F20001C4F20201086840F08070086024
:1007F000FFE741F20000C4F2020000688001002817
:1008000001D4FFE7F5E741F20401C4F202010868F0
:1008100020F003000860086840F002000860FFE76D
:1008200041F20400C4F20200006800F00C00082845
:1008300001D0FFE7F4E700E0FFE704B070470000F5
:1008400080B541F20002C4F20202106840F00100DB
:10085000106041F20401C4F2020108680023CFF6DF
:10086000FF031840086010684FF6FF73CFF6F66379
:1008700018401060106820F480201060086820F490
:10088000FE00086041F20801C4F202014FF41F00AB
:100890000860FFF73FFF4EF60851CEF200014FF01F
:1008A0000060086080BD000082B001908DF80310E8
:1008B0009DF8030030B1FFE70199088840F001007E
:1008C000088005E00199088820F001000880FFE712
:1008D00002B0704782B001908DF803109DF80300BC
:1008E00040B1FFE70199B1F8440040F40040A1F89D
:1008F000440007E00199B1F844006FF3DF30A1F83C
:100900004400FFE702B0704784B0039002910020DA
:10091000ADF80600ADF80400ADF802000399088CAC
:1009200020F0010008840398008CADF804000398BF
:100930008088ADF802000398008BADF80600BDF882
:10094000060020F07000ADF80600BDF8060020F0AB
:100950000300ADF8060002980188BDF806000843C0
:10096000ADF80600BDF8040020F00200ADF8040068
:1009700002980189BDF804000843ADF8040002980C
:100980004188BDF804000843ADF80400039842F61E
:100990000041C4F20101884220D0FFE7039843F2EE
:1009A0000041C4F20101884218D0FFE7039844F2E5
:1009B0000001C4F20101884210D0FFE7039844F21D
:1009C0000041C4F20101884208D0FFE7039844F6D1
:1009D0000001C4F20101884235D1FFE7BDF80400EF
:1009E00020F00800ADF8040002984189BDF8040029
:1009F0000843ADF80400BDF8040020F00400ADF891
:100A0000040002988188BDF804000843ADF8040092
:100A1000BDF8020020F48070ADF80200BDF80200BD
:100A200020F40070ADF8020002988189BDF8020040
:100A30000843ADF802000298C189BDF802000843DE
:100A4000ADF80200FFE7BDF8020003998880BDF809
:100A50000600039908830298C08803998886BDF828
:100A600004000399088404B07047000084B0039028
:100A700002910020ADF80600ADF80400ADF80200C8
:100A80000399088C20F0100008840398008CADF8BE
:100A9000040003988088ADF802000398008BADF83D
:100AA0000600BDF8060020F4E040ADF80600BDF8F1
:100AB000060020F44070ADF8060002980188BDF8E9
:100AC000060040EA0120ADF80600BDF8040020F061
:100AD0002000ADF8040002980189BDF8040040EA46
:100AE0000110ADF8040002984188BDF8040040EA06
:100AF0000110ADF80400039842F60041C4F2010170
:100B0000884208D0FFE7039843F20041C4F2010194
:100B1000884239D1FFE7BDF8040020F08000ADF82D
:100B2000040002984189BDF8040040EA0110ADF8C4
:100B30000400BDF8040020F04000ADF80400029865
:100B40008188BDF8040040EA0110ADF80400BDF84A
:100B5000020020F48060ADF80200BDF8020020F42D
:100B60000060ADF8020002988189BDF8020040EAF9
:100B70008100ADF802000298C189BDF8020040EA88
:100B80008100ADF80200FFE7BDF8020003998880FC
:100B9000BDF80600039908830298C0880399088766
:100BA000BDF804000399088404B0704784B0039032
:100BB00002910020ADF80600ADF80400ADF8020087
:100BC0000399088C20F4807008840398008CADF899
:100BD000040003988088ADF802000398808BADF87C
:100BE0000600BDF8060020F07000ADF80600BDF864
:100BF000060020F00300ADF8060002980188BDF859
:100C000006000843ADF80600BDF8040020F40070AB
:100C1000ADF8040002980189BDF8040040EA012003
:100C2000ADF8040002984188BDF8040040EA0120B4
:100C3000ADF80400039842F60041C4F20101884275
:100C400008D0FFE7039843F20041C4F20101884253
:100C500039D1FFE7BDF8040020F40060ADF80400CE
:100C600002984189BDF8040040EA0120ADF8040073
:100C7000BDF8040020F48060ADF80400029881887B
:100C8000BDF8040040EA0120ADF80400BDF8020000
:100C900020F48050ADF80200BDF8020020F40050AE
:100CA000ADF8020002988189BDF8020040EA011007
:100CB000ADF802000298C189BDF8020040EA0110B7
:100CC000ADF80200FFE7BDF8020003998880BDF887
:100CD0000600039988830298C08803998887BDF825
:100CE00004000399088404B07047000084B00390A6
:100CF00002910020ADF80600ADF80400ADF8020046
:100D00000399088C20F4805008840398008CADF877
:100D1000040003988088ADF802000398808BADF83A
:100D20000600BDF8060020F4E040ADF80600BDF86E
:100D3000060020F44070ADF8060002980188BDF866
:100D4000060040EA0120ADF80600BDF8040020F4DA
:100D50000050ADF8040002980189BDF8040040EA93
:100D60000130ADF8040002984188BDF8040040EA63
:100D70000130ADF80400039842F60041C4F20101CD
:100D8000884208D0FFE7039843F20041C4F2010112
:100D900088420FD1FFE7BDF8020020F48040ADF893
:100DA000020002988189BDF8020040EA8110ADF886
:100DB0000200FFE7BDF8020003998880BDF8060035
:100DC000039988830298C0880399A1F84000BDF870
:100DD00004000399088404B07047000083B00290B7
:100DE00001910020ADF8020002980088ADF80200E1
:100DF000029842F60041C4F20101884225D0FFE783
:100E0000029843F20041C4F2010188421DD0FFE77D
:100E10000298B0F1804F18D0FFE7029840F20041ED
:100E2000C4F20001884210D0FFE7029840F60001AA
:100E3000C4F20001884208D0FFE7029840F6004162
:100E4000C4F2000188420ED1FFE7BDF8020020F095
:100E50007000ADF8020001984188BDF80200084317
:100E6000ADF80200FFE7029841F20001C4F2000170
:100E7000884216D0FFE7029841F20041C4F2000117
:100E800088420ED0FFE7BDF8020020F44070ADF8B4
:100E900002000198C188BDF802000843ADF80200C5
:100EA000FFE7BDF802000299088001988088029946
:100EB00088850198008802990885029842F60041C9
:100EC000C4F20101884220D0FFE7029843F20041BA
:100ED000C4F20101884218D0FFE7029844F20001F1
:100EE000C4F20101884210D0FFE7029844F20041A9
:100EF000C4F20101884208D0FFE7029844F60001DD
:100F0000C4F20101884205D1FFE70198007A0299F5
:100F10000886FFE702990120888203B0704700002D
:100F200082B00190ADF80210BDF8020080050028E3
:100F300001D5FFE7FFE7BDF80200C0430199088033
:100F400002B0704783B00290ADF806100020ADF8F3
:100F50000400ADF80200BDF8060040F66A118842B0
:100F600001D1FFE7FFE79DF80700ADF80400BDF8E9
:100F7000041001208840ADF80200BDF80200C04313
:100F80000299088003B0704782B001908DF8031079
:100F90009DF8030030B1FFE70199888940F40050C3
:100FA000888105E00199888920F400508881FFE755
:100FB00002B0704780B588B04FF4804001210191A4
:100FC000FFF7D2FA01984FF4165103910021ADF8C2
:100FD00018100C22ADF81620ADF81410ADF8121050
:100FE000ADF8101025228DF808208DF809108DF825
:100FF0000A108DF80B0002A8FFF746FA43F600002E
:10100000C4F20100009003A900F060F80098019973
:10101000FFF7BAFF079808B080BD000086B00590C2
:10102000ADF8121000200390029001908DF803009B
:10103000BDF8120040F66A11884201D1FFE7FFE7D0
:101040009DF8120040090190BDF8120000F01F0049
:10105000029002990120884002900198012806D14F
:10106000FFE70598818902980840029010E00198F6
:10107000022806D1FFE70598018A029808400290ED
:1010800005E00598818A029808400290FFE7FFE793
:101090009DF8130003900399012088400390059860
:1010A0000188039808400390029838B1FFE703983D
:1010B00020B1FFE701208DF8030003E000208DF848
:1010C0000300FFE79DF8030006B0704780B58CB0C1
:1010D0000B900A91002009900890079006900590C7
:1010E0000A98808908B1FFE7FFE70B9805900B98F5
:1010F000008A099009984CF6FF71084009900A98F7
:10110000C18809980843099009980B9908820B989F
:101110008089099009984EF6F311084009900A99C0
:1011200088880A891043498901430998084309902E
:1011300009980B9988810B98808A099009984FF635
:10114000FF41084009900A9881890998084309904D
:1011500009980B9988826846FFF722FA059843F6AA
:101160000001C4F20101884203D1FFE7039808900F
:1011700002E002980890FFE70B988089000400289D
:101180000AD5FFE70898192148430A9909684900D8
:10119000B0FBF1F0079009E00898192148430A993B
:1011A00009688900B0FBF1F00790FFE7079848F263
:1011B0001F51C5F2EB11A0FB01016FF00F0000EA17
:1011C00051000990079A09980009642100FB112039
:1011D00006900B9880890004002810D5FFE7069937
:1011E000322000EBC10048F21F51C5F2EB11A0FB09
:1011F0000110C0F342110998084309900FE00699C5
:10120000322000EB011048F21F51C5F2EB11A0FB98
:101210000110C0F34311099808430990FFE70998AA
:101220000B9908810CB080BD81B000900098808837
:101230006FF35F2001B0704782B00190ADF80210EB
:10124000BDF802006FF35F200199888002B07047FB
:1012500083B0029000200190FFE701980299884234
:1012600013D2FFE700200090FFE7009842F6FE212E
:10127000884205D8FFE7FFE7009801300090F4E7C7
:10128000FFE7019801300190E7E703B070470000E5
:1012900080B5ACB000202B90FFF78CFE00F06AFC0C
:1012A00000F0DEFC00F01EFC00F0F2FCFFE743F66D
:1012B0000000C4F2010040F22551FFF7AFFE68B113
:1012C000FFE7FFE743F60000C4F2010040F22551BA
:1012D000FFF7A4FE08B1FFE7F4E7FFE743F60000DD
:1012E000C4F20100FFF7A0FF014640F26000C2F225
:1012F000000001700078302812D1FFE73421C4F2D9
:101300000001002008803821C4F2000108803C213F
:10131000C4F2000108804021C4F200010880FFE708
:1013200040F26000C2F200000078312812D1FFE7DD
:101330003421C4F20001632008803821C4F2000186
:1013400008803C21C4F2000108804021C4F2000161
:101350000880FFE740F26000C2F200000078322807
:1013600012D1FFE73421C4F20001C72008803821E0
:10137000C4F2000108803C21C4F200010880402131
:10138000C4F200010880FFE740F26000C2F20000F2
:101390000078332813D1FFE73421C4F2000140F272
:1013A0002B1008803821C4F2000108803C21C4F2CF
:1013B000000108804021C4F200010880FFE740F2EC
:1013C0006000C2F200000078342813D1FFE7342116
:1013D000C4F2000140F28F1008803821C4F20001ED
:1013E00008803C21C4F2000108804021C4F20001C1
:1013F0000880FFE740F26000C2F200000078352864
:1014000013D1FFE73421C4F2000140F2F310088049
:101410003821C4F2000108803C21C4F20001088098
:101420004021C4F200010880FFE740F26000C2F2F0
:1014300000000078362813D1FFE73421C4F2000100
:1014400040F2572008803821C4F2000108803C2176
:10145000C4F2000108804021C4F200010880FFE7C7
:1014600040F26000C2F200000078372813D1FFE795
:101470003421C4F2000140F2BB2008803821C4F2BC
:10148000000108803C21C4F2000108804021C4F220
:1014900000010880FFE740F26000C2F2000000781F
:1014A000382813D1FFE73421C4F2000140F21F3085
:1014B00008803821C4F2000108803C21C4F20001F8
:1014C00008804021C4F200010880FFE740F260007C
:1014D000C2F200000078392813D1FFE73421C4F2AA
:1014E000000140F2833008803821C4F200010880F6
:1014F0003C21C4F2000108804021C4F200010880B0
:10150000FFE740F26000C2F200000078712813D1BA
:10151000FFE73421C4F200014FF6FF700880382144
:10152000C4F2000108803C21C4F20001088040217F
:10153000C4F200010880FFE740F26000C2F2000040
:10154000007842282ED1FFE743F60000C4F20100E4
:1015500027904221FFF770FE27988021FFF7E0FCDB
:1015600040F60000C4F2010028905021FEF736FF3B
:1015700040F60040C4F2010029904FF42041FEF7EC
:101580002DFF32202A90FFF763FE2898A021FEF756
:101590002FFF29984FF4A041FEF72AFF2A98FFF762
:1015A00057FE94E240F26000C2F200000078462844
:1015B0002ED1FFE743F60000C4F20100239046213C
:1015C000FFF73AFE23988021FFF7AAFC40F60000BF
:1015D000C4F201002490A021FEF700FF40F6004075
:1015E000C4F2010025904FF4A041FEF7F7FE32202F
:1015F0002690FFF72DFE24985021FEF7F9FE25983E
:101600004FF42041FEF7F4FE2698FFF721FE5DE23D
:1016100040F26000C2F2000000784C282ED1FFE7B3
:1016200043F60000C4F201001F904C21FFF704FEB6
:101630001F988021FFF774FC40F60000C4F20100FF
:101640002090B021FEF7CAFE40F60040C4F201002F
:1016500021904FF4E041FEF7C1FE32202290FFF7C7
:10166000F7FD20984021FEF7C3FE21984FF400417A
:10167000FEF7BEFE2298FFF7EBFD26E240F2600087
:10168000C2F20000007852282ED1FFE743F6000096
:10169000C4F201001B905221FFF7CEFD1B98802160
:1016A000FFF73EFC40F60000C4F201001C90E02170
:1016B000FEF794FE40F60040C4F201001D904FF486
:1016C0005041FEF78BFE32201E90FFF7C1FD1C98A3
:1016D0001021FEF78DFE1D984FF40051FEF788FE95
:1016E0001E98FFF7B5FDEFE140F26000C2F2000086
:1016F000007848282FD1FFE743F60000C4F201002C
:1017000016904821FFF798FD169880211891FFF751
:1017100007FC40F60000C4F2010017907021FEF7AC
:101720005DFE40F60040C4F2010019904FF42041E4
:10173000FEF754FE32201A90FFF78AFD1798189989
:10174000FEF756FE19984FF4A041FEF751FE1A9885
:10175000FFF77EFDB7E140F26000C2F200000078C2
:101760004A282ED1FFE743F60000C4F20100129090
:101770004A21FFF761FD12988021FFF7D1FB40F667
:101780000000C4F201001390D021FEF727FE40F6BE
:101790000040C4F2010014904FF42041FEF71EFEF9
:1017A00032201590FFF754FD13982021FEF720FEFC
:1017B00014984FF4A041FEF71BFE1598FFF748FD63
:1017C00080E140F26000C2F20000007847282ED18C
:1017D000FFE743F60000C4F201000E904721FFF737
:1017E0002BFD0E988021FFF79BFB40F60000C4F212
:1017F00001000F90A021FEF7F1FD40F60040C4F279
:10180000010010904FF4E041FEF7E8FD3220119006
:10181000FFF71EFD0F985021FEF7EAFD10984FF4D8
:101820000041FEF7E5FD1198FFF712FD49E140F296
:101830006000C2F20000007849282ED1FFE743F68D
:101840000000C4F201000A904921FFF7F5FC0A9854
:101850008021FFF765FB40F60000C4F201000B9009
:10186000A021FEF7BBFD40F60040C4F201000C9041
:101870004FF45041FEF7B2FD32200D90FFF7E8FC27
:101880000B985021FEF7B4FD0C984FF40051FEF771
:10189000AFFD0D98FFF7DCFC12E140F26000C2F2F0
:1018A0000000007853281CD1FFE743F60000C4F283
:1018B000010009905321FFF7BFFC09988021FFF731
:1018C0002FFB40F60000C4F20100F021FEF786FD78
:1018D00040F60040C4F201004FF47041FEF77EFD77
:1018E000EDE040F26000C2F200000078572815D108
:1018F000FFE743F60000C4F2010008905721FFF70C
:101900009BFC08988021FFF70BFB41F20000C4F21A
:1019100001004FF40051FEF761FDCFE040F260009E
:10192000C2F200000078772815D1FFE743F60000E7
:10193000C4F2010007907721FFF77EFC0798802111
:10194000FFF7EEFA41F20000C4F201004FF400513B
:10195000FEF74EFDB1E040F26000C2F200000078F8
:10196000552814D1FFE743F60000C4F201000690A9
:101970005521FFF761FC06988021FFF7D1FA40F668
:101980000040C4F201000121FEF728FD94E040F27E
:101990006000C2F200000078752814D1FFE743F61A
:1019A0000000C4F2010005907521FFF745FC059881
:1019B0008021FFF7B5FA40F60040C4F20100012192
:1019C000FEF716FD77E040F26000C2F200000078FA
:1019D000562815D1FFE743F60000C4F20100049039
:1019E0005621FFF729FC04988021FFF799FA41F26C
:1019F0000000C4F201004FF48041FEF7EFFC59E013
:101A000040F26000C2F200000078762815D1FFE7AE
:101A100043F60000C4F2010003907621FFF70CFCAE
:101A200003988021FFF77CFA41F20000C4F2010024
:101A30004FF48041FEF7DCFC3BE040F26000C2F274
:101A400000000078582815D1FFE743F60000C4F2E3
:101A5000010002905821FFF7EFFB02988021FFF769
:101A60005FFA41F20000C4F201004FF40041FEF7BA
:101A7000B5FC1DE040F26000C2F20000007878285A
:101A800015D1FFE743F60000C4F201000190782170
:101A9000FFF7D2FB01988021FFF742FA41F20000E4
:101AA000C4F201004FF40041FEF7A2FCFFE7FFE79C
:101AB000FFE7FFE7FFE7FFE7FFE7FFE7FFE7FFE7F6
:101AC000FFE7FFE7FFE7FFE7FFE7FFE7FFE743F693
:101AD0000000C4F2010040F22551FFF733FAFFF78E
:101AE000E6BB000080B588B004200190012103917D
:101AF000FEF73AFD182002908DF81F000820ADF87F
:101B00001C00032004908DF81E0040F60000C4F273
:101B10000100059007A90691FEF79CFB019BDDF8EB
:101B200008C0049A059806998DF81FC0ADF81C30BE
:101B30008DF81E20FEF78EFB029B049A05980699ED
:101B40008DF81F300223ADF81C308DF81E20FEF7F3
:101B500081FBDDF808C0039B049A059806998DF86F
:101B60001FC0ADF81C308DF81E20FEF773FB08B0C7
:101B700080BD000080B588B040F60000C4F20100CE
:101B8000009010220692032307931146FEF73AFCB9
:101B90000098069A079B2021FEF734FC0098069ACD
:101BA000079B4021FEF72EFC0098069A079B802198
:101BB000FEF728FC069A079B40F60040C4F201009D
:101BC00002900121FEF71EFC0298079B02210422CD
:101BD0000192FEF717FC019A0298079B0821FEF775
:101BE00011FC019A0298079B4FF48061FEF70AFCF2
:101BF000019A0298079B4FF40061FEF703FC0298DC
:101C0000069A079B4FF48051FEF7FCFB0298069A58
:101C1000079B4FF40051FEF7F5FB0298069A079BCD
:101C20004FF480410391FEF7EDFB0298069A079B63
:101C30004FF400410591FEF7E5FB0399069A079BD7
:101C400041F20000C4F201000490FEF7DBFB0498AF
:101C50000599069A079BFEF7D5FB08B080BD0000EA
:101C600080B582B040F60000C4F2010000904FF44D
:101C70000071182203230193FEF7C4FB0098019B17
:101C80004FF480610422FEF7BDFB02B080BD00006E
:101C900080B58CB0012104910846FEF749FC0499F7
:101CA0000846FEF761FC40F2E730ADF82A00472015
:101CB000ADF8260000200190ADF82800ADF82C000A
:101CC0008DF82E004FF0804003900DF12601FFF7B4
:101CD00085F801990398049A60230093ADF81630B3
:101CE000ADF81E10ADF81820ADF81C100DF116015E
:101CF0000291FEF7FBFFDDF800C0019A02990398FC
:101D0000049BADF816C0ADF81E20ADF81830ADF844
:101D10001C20FEF74BFFDDF800C0019A02990398E2
:101D2000049BADF816C0ADF81E20ADF81830ADF824
:101D30001C20FEF79BFEDDF800C0019A0299039873
:101D4000049BADF816C0ADF81E20ADF81830ADF804
:101D50001C20FEF7D9FD03980499FEF7BBFD0398FC
:101D60000499FEF7A1FD0CB080BD02040608000036
:101D70000000010203040102030406070809000031
:101D8000901D0008000000206806000054010008B3
:040000050800019955
:00000001FF
