:020000040800F2
:1000000070060020F9010008010200080302000840
:1000100005020008070200080902000800000000AD
:100020000000000000000000000000000B020008BB
:100030000D020008000000000F0200081102000875
:10004000130200081302000813020008130200083C
:10005000130200081302000813020008130200082C
:10006000130200081302000813020008130200081C
:10007000130200081302000813020008130200080C
:1000800013020008130200081302000813020008FC
:1000900013020008130200081302000813020008EC
:1000A00013020008130200081302000813020008DC
:1000B00013020008130200081302000813020008CC
:1000C00013020008130200081302000813020008BC
:1000D00013020008130200081302000813020008AC
:1000E000130200081302000813020008130200089C
:1000F000130200081302000813020008130200088C
:10010000130200081302000813020008130200087B
:10011000130200081302000813020008130200086B
:10012000130200081302000813020008130200085B
:1001300000F002F800F050F814A696E8000CB24463
:10014000B344DA4501D100F047F8BAE80F000FA632
:1001500096E83000A5EB040504EB0607AAEB0704BC
:10016000A7F101074FEA15154FEA3414A4F1010471
:10017000AC4201D300F030F813F0010F18BFFB1AA6
:1001800043F0010300F001F8DBE7184784040000A6
:10019000A4040000103A24BF78C878C1FAD85207E6
:1001A00024BF30C830C144BF04680C6070470000F1
:1001B000704700000023002400250026103A28BFC5
:1001C00078C1FBD8520728BF30C148BF0B607047C9
:1001D0001FB51FBD10B510BD00F031F81146FFF777
:1001E000F7FF00F08FF900F04FF803B4FFF7F2FFCC
:1001F00003BC00F057F80000094880470948004751
:10020000FEE7FEE7FEE7FEE7FEE7FEE7FEE7FEE7C6
:10021000FEE7FEE704480549054A064B7047000023
:100220005D04000831010008700000207006002005
:1002300070020020700200207047704770477546BA
:1002400000F02CF8AE4605006946534620F0070042
:10025000854618B020B5FFF7DDFFBDE820404FF020
:1002600000064FF000074FF000084FF0000BAC46BF
:10027000ACE8C009ACE8C009ACE8C009ACE8C0090A
:1002800021F007018D46704710B50446AFF300809A
:100290002046BDE81040FFF7A8BF000000487047A7
:1002A0001000002001491820ABBEFEE72600020026
:1002B0007047000082B00190ADF802108DF8012067
:1002C0009DF8010028B1FFE7BDF80200019908611F
:1002D00004E0BDF8020001994861FFE702B07047F1
:1002E00080B584B00390039846F26761C6F26661F8
:1002F000019180FB0112911001EBD27101EB8101A0
:10030000A0EB410140F20000C2F200000290405C0C
:1003100000F052F9019A0298039981FB02129110A0
:1003200001EBD271405C00F047F904B080BD0000E1
:1003300080B500F001F880BD84B0002003900290E9
:1003400041F20001C4F20201086840F48030086004
:10035000FFE741F20000C4F20200006800F4003040
:100360000290039801300390FFE70299002001906A
:1003700039B9FFE70398B0F5A06018BF01200190DC
:10038000FFE70198C0070028E3D1FFE741F2000032
:10039000C4F2020000688003002803D5FFE70120B3
:1003A000029002E000200290FFE70298012851D15C
:1003B000FFE742F20001C4F20201086840F01000B9
:1003C0000860086820F007000860086840F0020034
:1003D000086041F20401C4F202010091086808605B
:1003E00008680860086840F480600860086820F4C5
:1003F0007C100860086840F4E810086041F20001D1
:10040000C4F20201086840F080700860FFE741F222
:100410000000C4F2020000688001002801D4FFE758
:10042000F5E741F20401C4F20201086820F003007C
:100430000860086840F002000860FFE741F204002D
:10044000C4F20200006800F00C00082801D0FFE7A9
:10045000F4E700E0FFE704B07047000080B541F228
:100460000002C4F20202106840F00100106041F284
:100470000401C4F2020108680023CFF6FF0318400C
:10048000086010684FF6FF73CFF6F66318401060EF
:10049000106820F480201060086820F4FE000860D6
:1004A00041F20801C4F202014FF41F000860FFF797
:1004B0003FFF4EF60851CEF200014FF00060086099
:1004C00080BD000083B0029000200190FFE70198FA
:1004D0000299884213DAFFE700200090FFE70098B6
:1004E00042F6FE21884205DCFFE7FFE70098013075
:1004F0000090F4E7FFE7019801300190E7E703B0CF
:100500007047000080B584B00020039041F21801CC
:10051000C4F20201086840F010000860086840F06A
:100520000400086041F20001C4F20101086820F0F3
:1005300070400860086840F04050086041F20401D3
:10054000C4F20101086820F470200860086840F4D3
:100550004030086040F60001C4F2010101910868D2
:1005600020F00F000860086840F003000860086889
:1005700020F0F0000860086840F03000086008686B
:1005800020F470600860086840F440700860FFE77D
:1005900000200290FFE7029863280BDCFFE7029837
:1005A000FFF79EFE6420FFF78DFFFFE70298013002
:1005B0000290F0E7ECE7000080B582B001900020E7
:1005C0000090FFE7009807281FDCFFE701980099DB
:1005D000884000F0800240F60000C4F201000121D2
:1005E000FFF768FE40F61002C4F20102022010601C
:1005F00040F61401C4F20101086004201060086094
:10060000FFE7009801300090DCE702B080BD0000F9
:1006100030060008000000200C00000094010008D3
:100620003C0600081000002060060000B40100082D
:0C063000C0F9A4B0999282F880900000FC
:04000005080001F9F5
:00000001FF
