:020000040800F2
:1000000068060020DD010008E5010008E70100089E
:10001000E9010008EB010008ED0100080000000004
:10002000000000000000000000000000EF010008D8
:10003000F101000800000000F3010008F5010008CC
:10004000F7010008F7010008F7010008F7010008B0
:10005000F7010008F701000899020008F7010008FD
:10006000F7010008F7010008F7010008F701000890
:10007000F7010008F7010008F7010008F701000880
:10008000F7010008F7010008F7010008F701000870
:10009000F7010008F7010008F7010008F701000860
:1000A000F7010008F7010008F7010008F701000850
:1000B000F7010008F7010008F7010008F701000840
:1000C000F7010008F7010008F7010008F701000830
:1000D000F7010008F7010008F7010008F701000820
:1000E000F7010008F7010008F7010008F701000810
:1000F000F7010008F7010008F7010008F701000800
:10010000F7010008F7010008F7010008F7010008EF
:10011000F7010008F7010008F7010008F7010008DF
:10012000F7010008F7010008F7010008F7010008CF
:1001300000F002F800F042F814A696E8000CB24471
:10014000B344DA4501D100F039F8BAE80F000FA640
:1001500096E83000A5EB040504EB0607AAEB0704BC
:10016000A7F101074FEA15154FEA3414A4F1010471
:10017000AC4201D300F022F813F0010F18BFFB1AB4
:1001800043F0010300F001F8DBE7184784040000A6
:10019000940400007047000000230024002500267E
:1001A000103A28BF78C1FBD8520728BF30C148BFDA
:1001B0000B6070471FB51FBD10B510BD00F031F8C2
:1001C0001146FFF7F7FF00F0A7F900F04FF803B46E
:1001D000FFF7F2FF03BC00F057F800000948804722
:1001E00009480047FEE7FEE7FEE7FEE7FEE7FEE719
:1001F000FEE7FEE7FEE7FEE704480549054A064B31
:100200007047000041040008310100086800002028
:1002100068060020680200206802002070477047CE
:100220007047754600F02CF8AE4605006946534607
:1002300020F00700854618B020B5FFF7DDFFBDE8C8
:1002400020404FF000064FF000074FF000084FF03D
:10025000000BAC46ACE8C009ACE8C009ACE8C0098A
:10026000ACE8C00921F007018D46704710B504467F
:10027000AFF300802046BDE81040FFF7A8BF0000A4
:10028000004870470000002001491820ABBEFEE77F
:10029000260002007047000040F21440C4F2010042
:1002A0000068C007F0B1FFE740F21441C4F2010159
:1002B000086840F00100086040F26000C2F20000EF
:1002C000008838B1FFE740F26001C2F2000100206F
:1002D000088006E040F26001C2F2000101200880BF
:1002E000FFE7FFE77047000082B00190ADF8021011
:1002F0008DF801209DF8010028B1FFE7BDF802004C
:100300000199086104E0BDF8020001994861FFE726
:1003100002B0704780B500F001F880BD84B00020C5
:100320000390029041F20001C4F20201086840F417
:1003300080300860FFE741F20000C4F2020000686C
:1003400000F400300290039801300390FFE7029917
:100350000020019039B9FFE70398B0F5A06018BFFD
:1003600001200190FFE70198C0070028E3D1FFE7D3
:1003700041F20000C4F2020000688003002803D5A7
:10038000FFE70120029002E000200290FFE70298C0
:10039000012851D1FFE742F20001C4F202010868CE
:1003A00040F010000860086820F007000860086846
:1003B00040F00200086041F20401C4F20201009121
:1003C0000868086008680860086840F48060086091
:1003D000086820F47C100860086840F4E8100860A1
:1003E00041F20001C4F20201086840F08070086028
:1003F000FFE741F20000C4F202000068800100281B
:1004000001D4FFE7F5E741F20401C4F202010868F4
:1004100020F003000860086840F002000860FFE771
:1004200041F20400C4F20200006800F00C00082849
:1004300001D0FFE7F4E700E0FFE704B070470000F9
:1004400080B541F20002C4F20202106840F00100DF
:10045000106041F20401C4F2020108680023CFF6E3
:10046000FF031840086010684FF6FF73CFF6F6637D
:1004700018401060106820F480201060086820F494
:10048000FE00086041F20801C4F202014FF41F00AF
:100490000860FFF73FFF4EF60851CEF200014FF023
:1004A0000060086080BD000081B08DF803009DF9F8
:1004B000030000280ED4FFE79DF9031001F01F028E
:1004C000012090404A094EF20011CEF2000141F89D
:1004D0002200FFE701B0704783B002900020019036
:1004E000FFE701980299884213DAFFE700200090A5
:1004F000FFE7009842F6FE21884205DCFFE7FFE7B0
:10050000009801300090F4E7FFE701980130019076
:10051000E7E703B07047000080B582B0002001908B
:1005200041F21801C4F20201086840F010000860AE
:10053000086840F00400086041F20001C4F20101C3
:10054000086820F070400860086840F0405008607B
:1005500041F20401C4F20101086820F4702008602F
:10056000086840F44030086040F60001C4F2010120
:10057000086820F00F000860086840F00800086074
:1005800072B60821C4F20101086820F00F0008606B
:100590000868086040F20041C4F20101086840F0B8
:1005A0000100086040F20841C4F20101086840F00F
:1005B000010008600620FFF777FF62B6FFE740F210
:1005C0006000C2F200000090027841F20000C4F224
:1005D00001008021FFF788FE0098008878B1FFE7CE
:1005E0001420FFF779FF41F20C01C4F20101086801
:1005F00080F480500860C820FFF76EFF07E041F2EA
:100600001001C4F201014FF480500860FFE7D6E703
:10061000200600080000002068060000980100087D
:04000005080001DD11
:00000001FF
