:020000040800F2
:100000006006002099010008A1010008A301000872
:10001000A5010008A7010008A901000800000000D0
:10002000000000000000000000000000AB0100081C
:10003000AD01000800000000AF010008B101000898
:10004000B3010008B3010008B3010008B3010008C0
:10005000B3010008B3010008B3010008B3010008B0
:10006000B3010008B3010008B3010008B3010008A0
:10007000B3010008B3010008B3010008B301000890
:10008000B3010008B3010008B3010008B301000880
:10009000B3010008B3010008B3010008B301000870
:1000A000B3010008B3010008B3010008B301000860
:1000B000B3010008B3010008B3010008B301000850
:1000C000B3010008B3010008B3010008B301000840
:1000D000B3010008B3010008B3010008B301000830
:1000E000B3010008B3010008B301000800F002F8F2
:1000F00000F042F814A696E8000CB244B344DA4586
:1001000001D100F039F8BAE80F000FA696E83000E8
:10011000A5EB040504EB0607AAEB0704A7F101070A
:100120004FEA15154FEA3414A4F10104AC4201D38F
:1001300000F022F813F0010F18BFFB1A43F001037F
:1001400000F001F8DBE718476C1200007C12000099
:10015000704700000023002400250026103A28BF25
:1001600078C1FBD8520728BF30C148BF0B60704729
:100170001FB51FBD10B510BD00F031F81146FFF7D7
:10018000F7FF01F0CDF800F04FF803B4FFF7F2FFEE
:1001900003BC00F057F800000948804709480047B1
:1001A000FEE7FEE7FEE7FEE7FEE7FEE7FEE7FEE727
:1001B000FEE7FEE704480549054A064B7047000084
:1001C000ED0B0008ED000008600000206006002034
:1001D000600200206002002070477047704775463B
:1001E00000F02CF8AE4605006946534620F00700A3
:1001F000854618B020B5FFF7DDFFBDE820404FF081
:1002000000064FF000074FF000084FF0000BAC461F
:10021000ACE8C009ACE8C009ACE8C009ACE8C0096A
:1002200021F007018D46704710B50446AFF30080FA
:100230002046BDE81040FFF7A8BF00000048704707
:100240000000002001491820ABBEFEE72600020096
:100250007047000080B58EB04FF401700121069107
:1002600000F012FC1020ADF83400002004908DF84E
:100270003700032001908DF8360040F60000C4F2EC
:10028000010002900DA9039100F048FA019A02982A
:100290000399049B4FF0200CADF834C08DF8373033
:1002A0008DF8362000F03AFA019A02980399049BDF
:1002B0004FF0400CADF834C08DF837308DF8362053
:1002C00000F02CFA019A02980399049B4FF0800CDD
:1002D000ADF834C08DF837308DF8362000F01EFAB6
:1002E0000499069808918DF824008DF825004FF4A4
:1002F00060220A920B918DF8300042F20040C4F265
:100300000100079008A900F0ABF8069A07980421AD
:100310000523059300F01AF9059B069A07981946DC
:1003200000F014F9059B069A0798062100F00EF9D3
:10033000059B069A0798072100F008F90699079887
:1003400000F026F8079800F0BFF9FFE742F20040FE
:10035000C4F2010000F06CF808B1FFE7F6E742F2E2
:100360000040C4F2010000F0CFF9FFE742F2004084
:10037000C4F2010000F022F808B1FFE7F6E742F20C
:100380000040C4F20100012100F0A8F90EB080BDC8
:1003900082B001908DF803109DF8030030B1FFE7A3
:1003A0000199886840F00100886005E0019988683B
:1003B00020F001008860FFE702B0704782B0019032
:1003C00000208DF80300019880684007002804D5BC
:1003D000FFE701208DF8030003E000208DF8030003
:1003E000FFE79DF8030002B07047000081B0009065
:1003F0000098C06C80B201B07047000082B00190DC
:100400008DF8031000208DF80200019800689DF817
:100410000310084204D0FFE701208DF8020003E03A
:1004200000208DF80200FFE79DF8020002B070473F
:1004300082B0019000208DF80300019880680007C9
:10044000002804D5FFE701208DF8030003E0002019
:100450008DF80300FFE79DF8030002B0704700002D
:1004600084B003900291002001908DF8030003985E
:100470004068019001984FF6FF61CFF6F071084097
:10048000019002990868097940EA0121019808431E
:100490000190019803994860039880680190019841
:1004A0004FF2FD71CFF6F171084001900299C868D2
:1004B0008A681043497940EA410101980843019054
:1004C0000198039988600398C06A0190019820F40C
:1004D000700001900298007C411E9DF803000843C3
:1004E0008DF803009DF80310019840EA0150019037
:1004F00001980399C86204B07047000080B584B0C9
:100500008DF80F009DF80F1042F20040C4F2010078
:10051000019001220292052300F018F80198029937
:1005200000F0DCF8FFE742F20040C4F201000221D3
:10053000FFF764FF08B9FFE7F5E742F20040C4F2B5
:100540000100FFF753FF04B080BD000084B00390AA
:100550008DF80B108DF80A208DF8093000200190DD
:1005600000909DF80B000A2821DBFFE70398C06884
:1005700001909DF80B0000EB4000A0F11E01072048
:100580008840009000990198884301909DF80900E7
:100590009DF80B1001EB41011E3988400090009935
:1005A00001980843019001980399C8601DE00398E1
:1005B000006901909DF80B0000EB40010720884086
:1005C000009000990198884301909DF809009DF8DA
:1005D0000B1001EB410188400090009901980843FD
:1005E0000190019803990861FFE79DF80A00062829
:1005F00020DCFFE70398406B01909DF80A0000EBB8
:100600008000411F1F208840009000990198884376
:1006100001909DF80B009DF80A1001EB810105394E
:10062000884000900099019808430190019803992F
:10063000486347E09DF80A000C2821DCFFE7039897
:10064000006B01909DF80A0000EB8000A0F12301EF
:100650001F208840009000990198884301909DF8E0
:100660000B009DF80A1001EB8101233988400090AE
:10067000009901980843019001980399086320E0CC
:100680000398C06A01909DF80A0000EB8000A0F179
:1006900041011F20884000900099019888430190F3
:1006A0009DF80B009DF80A1001EB8101413988404B
:1006B0000090009901980843019001980399C8623D
:1006C000FFE7FFE704B0704781B0009000998868A9
:1006D00040F00800886001B07047000082B00190CF
:1006E0008DF803109DF8030030B1FFE70199886889
:1006F00040F4A000886005E00199886820F4A0001B
:100700008860FFE702B0704781B000900099886868
:1007100040F00400886001B07047000088B0079086
:1007200006910020059004900390029001900090A3
:100730000698C07800F00F0005900698C078C006B3
:10074000002806D5FFE706988178059808430590AC
:10075000FFE70698007800284BD0FFE7079800686D
:10076000019000200390FFE7039807283DD8FFE79A
:100770000399012088400290069800880299084059
:1007800004900498029988422AD1FFE703988000D8
:10079000029002990F2088400090009901988843A8
:1007A00001900598029900FA01F10198084301901F
:1007B0000698C078282806D1FFE7039901208840D1
:1007C000079948610BE00698C078482806D1FFE7F2
:1007D00003990120884007990861FFE7FFE7FFE7D9
:1007E000FFE7039801300390BEE70198079908607E
:1007F000FFE706980088B0F5807F50DBFFE7079899
:100800004068019000200390FFE70398072842D832
:10081000FFE7039800F10801012088400290069844
:1008200000880299084004900498029988422DD1CA
:10083000FFE703988000029002990F208840009003
:1008400000990198884301900598029900FA01F1F6
:100850000198084301900698C078282808D1FFE73E
:10086000039800F108010120884007994861FFE7DB
:100870000698C078482808D1FFE7039800F10801DE
:100880000120884007990861FFE7FFE7FFE7039829
:1008900001300390B9E7019807994860FFE708B075
:1008A0007047000080B594B001210B91084600F01C
:1008B000CFF80B990420019000F0E6F80B98ADF802
:1008C0004C00182002908DF84F00032003908DF803
:1008D0004E0040F60000C4F20100049013A90591F7
:1008E000FFF71CFF029B039A049805994FF0020C36
:1008F000ADF84CC08DF84F308DF84E20FFF70EFF4D
:10090000DDF804C0029B039A04980599ADF84CC029
:100910008DF84F308DF84E20FFF700FF029B039AB1
:10092000049805994FF0080CADF84CC08DF84F3085
:100930008DF84E20FFF7F2FE44F61F60ADF846003A
:100940004720ADF8420000200790ADF84800ADF810
:1009500044004FF080400A900DF1420100F03EFC4F
:1009600007990A980B9A60230993ADF83230ADF8D5
:10097000342040F2DC520692ADF83820ADF83A103F
:100980000DF13201089100F095F9069B079A08993C
:100990000A98DDF82CC0DDF824E0ADF832E0ADF8BF
:1009A00034C0ADF83830ADF83A2000F035FA069B87
:1009B000079A08990A98DDF82CC0DDF824E0ADF814
:1009C00032E0ADF834C0ADF83830ADF83A2000F080
:1009D000C3FA069B079A08990A98DDF82CC0DDF83F
:1009E00024E0ADF832E0ADF834C0ADF83830ADF801
:1009F0003A2000F051FB0A980B9900F02BF90A9865
:100A00000B9900F03DF914B080BD000080B584B0B2
:100A1000ADF80E00ADF80C10ADF80A20ADF80830B6
:100A2000BDF80E104FF08040019000F0ADFB019832
:100A3000BDF80C1000F0B2FB0198BDF80A1000F0F0
:100A4000B7FB0198BDF8081000F0BCFB04B080BDF6
:100A500082B001908DF803109DF8030048B1FFE7C4
:100A6000019A41F21C01C4F20201086810430860B7
:100A700008E0019A41F21C01C4F2020108689043A7
:100A80000860FFE702B0704782B001908DF8031054
:100A90009DF8030048B1FFE7019A41F21801C4F242
:100AA000020108681043086008E0019A41F2180149
:100AB000C4F20201086890430860FFE702B0704783
:100AC00080B500F001F880BD84B000200390029052
:100AD00041F20001C4F20201086840F4803008606D
:100AE000FFE741F20000C4F20200006800F40030A9
:100AF0000290039801300390FFE7029900200190D3
:100B000039B9FFE70398B0F5A06018BF0120019044
:100B1000FFE70198C0070028E3D1FFE741F200009A
:100B2000C4F2020000688003002803D5FFE701201B
:100B3000029002E000200290FFE70298012851D1C4
:100B4000FFE742F20001C4F20201086840F0100021
:100B50000860086820F007000860086840F002009C
:100B6000086041F20401C4F20201009108680860C3
:100B700008680860086840F480600860086820F42D
:100B80007C100860086840F4E810086041F2000139
:100B9000C4F20201086840F080700860FFE741F28B
:100BA0000000C4F2020000688001002801D4FFE7C1
:100BB000F5E741F20401C4F20201086820F00300E5
:100BC0000860086840F002000860FFE741F2040096
:100BD000C4F20200006800F00C00082801D0FFE712
:100BE000F4E700E0FFE704B07047000080B541F291
:100BF0000002C4F20202106840F00100106041F2ED
:100C00000401C4F2020108680023CFF6FF03184074
:100C1000086010684FF6FF73CFF6F6631840106057
:100C2000106820F480201060086820F4FE0008603E
:100C300041F20801C4F202014FF41F000860FFF7FF
:100C40003FFF4EF60851CEF200014FF00060086001
:100C500080BD000082B001908DF803109DF8030064
:100C600030B1FFE70199088840F00100088005E0F5
:100C70000199088820F001000880FFE702B0704762
:100C800082B001908DF803109DF8030040B1FFE79A
:100C90000199B1F8440040F40040A1F8440007E095
:100CA0000199B1F844006FF3DF30A1F84400FFE789
:100CB00002B0704784B0039002910020ADF80600A6
:100CC000ADF80400ADF802000399088C20F0010093
:100CD00008840398008CADF8040003988088ADF870
:100CE00002000398008BADF80600BDF8060020F066
:100CF0007000ADF80600BDF8060020F00300ADF866
:100D0000060002980188BDF806000843ADF8060009
:100D1000BDF8040020F00200ADF80400029801893B
:100D2000BDF804000843ADF8040002984188BDF8FE
:100D300004000843ADF80400039842F60041C4F2F1
:100D40000101884220D0FFE7039843F20041C4F23A
:100D50000101884218D0FFE7039844F20001C4F271
:100D60000101884210D0FFE7039844F20041C4F229
:100D70000101884208D0FFE7039844F60001C4F25D
:100D80000101884235D1FFE7BDF8040020F00800DA
:100D9000ADF8040002984189BDF804000843ADF89D
:100DA0000400BDF8040020F00400ADF8040002982F
:100DB0008188BDF804000843ADF80400BDF80200C6
:100DC00020F48070ADF80200BDF8020020F400703D
:100DD000ADF8020002988189BDF802000843ADF821
:100DE00002000298C189BDF802000843ADF8020074
:100DF000FFE7BDF8020003998880BDF8060003995B
:100E000008830298C08803998886BDF80400039976
:100E1000088404B07047000084B003900291002061
:100E2000ADF80600ADF80400ADF802000399088C97
:100E300020F0100008840398008CADF8040003989B
:100E40008088ADF802000398008BADF80600BDF86D
:100E5000060020F4E040ADF80600BDF8060020F4DE
:100E60004070ADF8060002980188BDF8060040EA1F
:100E70000120ADF80600BDF8040020F02000ADF818
:100E8000040002980189BDF8040040EA0110ADF8A1
:100E9000040002984188BDF8040040EA0110ADF852
:100EA0000400039842F60041C4F20101884208D0D0
:100EB000FFE7039843F20041C4F20101884239D1AF
:100EC000FFE7BDF8040020F08000ADF804000298B0
:100ED0004189BDF8040040EA0110ADF80400BDF8F6
:100EE000040020F04000ADF8040002988188BDF8AD
:100EF000040040EA0110ADF80400BDF8020020F43F
:100F00008060ADF80200BDF8020020F40060ADF88A
:100F1000020002988189BDF8020040EA8100ADF824
:100F200002000298C189BDF8020040EA8100ADF8D4
:100F30000200FFE7BDF8020003998880BDF80600B3
:100F4000039908830298C08803990887BDF80400B4
:100F50000399088404B0704784B003900291002084
:100F6000ADF80600ADF80400ADF802000399088C56
:100F700020F4807008840398008CADF80400039876
:100F80008088ADF802000398808BADF80600BDF8AC
:100F9000060020F07000ADF80600BDF8060020F055
:100FA0000300ADF8060002980188BDF8060008436A
:100FB000ADF80600BDF8040020F40070ADF80400A0
:100FC00002980189BDF8040040EA0120ADF8040050
:100FD00002984188BDF8040040EA0120ADF8040001
:100FE000039842F60041C4F20101884208D0FFE7AD
:100FF000039843F20041C4F20101884239D1FFE76E
:10100000BDF8040020F40060ADF8040002984189A6
:10101000BDF8040040EA0120ADF80400BDF804006A
:1010200020F48060ADF8040002988188BDF80400C7
:1010300040EA0120ADF80400BDF8020020F4805021
:10104000ADF80200BDF8020020F40050ADF8020037
:1010500002988189BDF8020040EA0110ADF8020053
:101060000298C189BDF8020040EA0110ADF8020003
:10107000FFE7BDF8020003998880BDF806000399D8
:1010800088830298C08803998887BDF80400039973
:10109000088404B07047000084B0039002910020DF
:1010A000ADF80600ADF80400ADF802000399088C15
:1010B00020F4805008840398008CADF80400039855
:1010C0008088ADF802000398808BADF80600BDF86B
:1010D000060020F4E040ADF80600BDF8060020F45C
:1010E0004070ADF8060002980188BDF8060040EA9D
:1010F0000120ADF80600BDF8040020F40050ADF862
:10110000040002980189BDF8040040EA0130ADF8FE
:10111000040002984188BDF8040040EA0130ADF8AF
:101120000400039842F60041C4F20101884208D04D
:10113000FFE7039843F20041C4F2010188420FD156
:10114000FFE7BDF8020020F48040ADF802000298ED
:101150008189BDF8020040EA8110ADF80200FFE786
:10116000BDF8020003998880BDF8060003998883C2
:101170000298C0880399A1F84000BDF804000399C3
:10118000088404B07047000082B00190ADF80210EE
:10119000BDF802000199888602B0704782B00190C4
:1011A000ADF80210BDF802000199088702B070473F
:1011B00082B00190ADF80210BDF802000199888755
:1011C00002B0704782B00190ADF80210BDF8020085
:1011D0000199A1F8400002B07047000083B002906E
:1011E00001910020ADF8020002980088ADF80200DD
:1011F000029842F60041C4F20101884225D0FFE77F
:10120000029843F20041C4F2010188421DD0FFE779
:101210000298B0F1804F18D0FFE7029840F20041E9
:10122000C4F20001884210D0FFE7029840F60001A6
:10123000C4F20001884208D0FFE7029840F600415E
:10124000C4F2000188420ED1FFE7BDF8020020F091
:101250007000ADF8020001984188BDF80200084313
:10126000ADF80200FFE7029841F20001C4F200016C
:10127000884216D0FFE7029841F20041C4F2000113
:1012800088420ED0FFE7BDF8020020F44070ADF8B0
:1012900002000198C188BDF802000843ADF80200C1
:1012A000FFE7BDF802000299088001988088029942
:1012B00088850198008802990885029842F60041C5
:1012C000C4F20101884220D0FFE7029843F20041B6
:1012D000C4F20101884218D0FFE7029844F20001ED
:1012E000C4F20101884210D0FFE7029844F20041A5
:1012F000C4F20101884208D0FFE7029844F60001D9
:10130000C4F20101884205D1FFE70198007A0299F1
:101310000886FFE702990120888203B07047000029
:1013200080B586B000200590FEF794FFFFF7BAFA6B
:10133000FFE70420FFF7E2F8ADF812000520FFF701
:10134000DDF8ADF810000620FFF7D8F8ADF80E0074
:101350000720FFF7D3F8ADF80C00BDF812004FF4EA
:10136000FA6200FB02F14FF4FA7000EB1131ADF8B4
:101370000A10BDF81010514300EB1131ADF8081000
:10138000BDF80E10514300EB1131ADF80610BDF859
:101390000C10514300EB1130ADF80400BDF80A0009
:1013A000BDF80810BDF80620BDF80430FFF72EFB8D
:1013B000BFE70000C4130008000000206006000022
:0413C00054010008CC
:040000050800019955
:00000001FF
