:020000040800F2
:1000000068060020DD010008E5010008E70100089E
:10001000E9010008EB010008ED0100080000000004
:10002000000000000000000000000000EF010008D8
:10003000F101000800000000F3010008F5010008CC
:10004000F7010008F7010008F7010008F7010008B0
:10005000F7010008F7010008F7010008F7010008A0
:10006000F7010008F7010008F7010008F701000890
:10007000F7010008F7010008F7010008F701000880
:10008000F7010008F7010008F7010008F701000870
:10009000F7010008F7010008F7010008F701000860
:1000A000F7010008F7010008F7010008F701000850
:1000B000F7010008F7010008F7010008F701000840
:1000C000F7010008F7010008F7010008F701000830
:1000D000F7010008F7010008F7010008F701000820
:1000E000F7010008F7010008F7010008F701000810
:1000F000F7010008F7010008F7010008F701000800
:10010000F7010008F7010008F7010008F7010008EF
:10011000F7010008F7010008F7010008F7010008DF
:10012000F7010008F7010008F7010008F7010008CF
:1001300000F002F800F042F814A696E8000CB24471
:10014000B344DA4501D100F039F8BAE80F000FA640
:1001500096E83000A5EB040504EB0607AAEB0704BC
:10016000A7F101074FEA15154FEA3414A4F1010471
:10017000AC4201D300F022F813F0010F18BFFB1AB4
:1001800043F0010300F001F8DBE71847601C0000B2
:10019000701C00007047000000230024002500268A
:1001A000103A28BF78C1FBD8520728BF30C148BFDA
:1001B0000B6070471FB51FBD10B510BD00F036F8BD
:1001C0001146FFF7F7FF01F05BFA00F054F803B4B3
:1001D000FFF7F2FF03BC00F057F800000948804722
:1001E00009480047FEE7FEE7FEE7FEE7FEE7FEE719
:1001F000FEE7FEE7FEE7FEE704480549054A064B31
:100200007047000061080008310100086800002004
:1002100068060020680200206802002070477047CE
:100220007047000000487047000000207546FFF747
:10023000F9FFAE4605006946534620F007008546A3
:1002400018B020B5FFF7D8FFBDE820404FF00006FA
:100250004FF000074FF000084FF0000BAC46ACE841
:10026000C009ACE8C009ACE8C009ACE8C00921F09D
:1002700007018D46704710B50446AFF30080204655
:10028000BDE81040FFF7A3BF01491820ABBEFEE751
:10029000260002007047000088B0079006910020F9
:1002A0000590049003900290019000900698C07809
:1002B00000F00F0005900698C078C006002806D50B
:1002C000FFE706988178059808430590FFE70698B0
:1002D000007800284BD0FFE70798006801900020C5
:1002E0000390FFE7039807283DD8FFE70399012013
:1002F000884002900698008802990840049004986B
:10030000029988422AD1FFE703988000029002995F
:100310000F2088400090009901988843019005982B
:10032000029900FA01F10198084301900698C078FB
:10033000282806D1FFE703990120884007994861E2
:100340000BE00698C078482806D1FFE70399012002
:10035000884007990861FFE7FFE7FFE7FFE7039899
:1003600001300390BEE7019807990860FFE70698FF
:100370000088B0F5807F50DBFFE707984068019068
:1003800000200390FFE70398072842D8FFE703986F
:1003900000F1080101208840029006980088029927
:1003A000084004900498029988422DD1FFE70398F1
:1003B0008000029002990F208840009000990198D7
:1003C000884301900598029900FA01F101980843C9
:1003D00001900698C078282808D1FFE7039800F11B
:1003E00008010120884007994861FFE70698C07816
:1003F000482808D1FFE7039800F108010120884050
:1004000007990861FFE7FFE7FFE7039801300390D2
:10041000B9E7019807994860FFE708B07047000006
:1004200080B592B04FF4006000900121099100F076
:10043000A5F80999042000F0A1F84FF48070ADF8F8
:100440004400182001908DF84700032002908DF899
:10045000460040F60000C4F20100039011A9049187
:10046000FFF71AFF019B029A039804994FF4007C4E
:10047000ADF844C08DF847308DF84620FFF70CFFEB
:10048000019B029A039804994FF4806CADF844C024
:100490008DF847308DF84620FFF7FEFEDDF800C0EE
:1004A000019B029A03980499ADF844C08DF8473037
:1004B0008DF84620FFF7F0FE41F28730ADF83E00A0
:1004C0004720ADF83A0000200690ADF84000ADF8A6
:1004D0003C0042F60040C4F2010008900DF13A01E0
:1004E00000F08CFC06990898099A60230593ADF8F2
:1004F0002A30ADF82C20ADF83010ADF832100DF1E7
:100500002A01079100F010FADDF814C0069A079945
:100510000898099BADF82AC0ADF82C30ADF8302012
:10052000ADF8322000F0B2FADDF814C0069A07994F
:100530000898099BADF82AC0ADF82C30ADF83020F2
:10054000ADF8322000F042FBDDF814C0069A07999E
:100550000898099BADF82AC0ADF82C30ADF83020D2
:10056000ADF8322000F0D2FB0898099900F0ACF900
:100570000898099900F0BEF912B080BD82B00190D0
:100580008DF803109DF8030048B1FFE7019A41F28E
:100590001801C4F2020108681043086008E0019ADB
:1005A00041F21801C4F20201086890430860FFE7B5
:1005B00002B0704780B58CB0ADF82E00BDF82E00AB
:1005C000012849D1FFE741F21801C4F2020108688D
:1005D00040F001000860086840F480500860012085
:1005E0000A9004210991032207920023069300F048
:1005F0004DFE079A0A9805210223089300F046FE53
:10060000069A089B0A98062100F040FE079A089B6C
:100610000A98072100F03AFE09990A9A43F200036A
:10062000C4F20103188840F004001880188840F0D4
:100630003100188043F2040CC4F2010CBCF8000035
:1006400040F00400ACF80000188840F0400018802A
:10065000104600F075FC6AE0BDF82E00022865D156
:10066000FFE741F21801C4F20201086840F00100FE
:10067000086041F21C01C4F20201086840F48040A5
:1006800008600120059002210391032202920023B9
:10069000019300F0FBFD019B029A0598114600F0C2
:1006A000F5FD019B029A0599084600F0EFFD019BBC
:1006B000029A03980C21049100F0E8FD029A039B32
:1006C0000D21184600F0E2FD019A039B0E21184609
:1006D00000F0DCFD029A039B0F21184600F0D6FDC6
:1006E00003980499059A43F6000CC4F2000CBCF878
:1006F000003043F00403ACF80030BCF8003043F0A5
:100700003103ACF8003043F6040EC4F2000EBEF81C
:10071000003043F00403AEF80030BCF8003043F082
:100720004003ACF8003000F00BFCFFE7FFE70CB033
:1007300080BD000080B500F001F880BD84B00020CD
:100740000390029041F20001C4F20201086840F4F3
:1007500080300860FFE741F20000C4F20200006848
:1007600000F400300290039801300390FFE70299F3
:100770000020019039B9FFE70398B0F5A06018BFD9
:1007800001200190FFE70198C0070028E3D1FFE7AF
:1007900041F20000C4F2020000688003002803D583
:1007A000FFE70120029002E000200290FFE702989C
:1007B000012851D1FFE742F20001C4F202010868AA
:1007C00040F010000860086820F007000860086822
:1007D00040F00200086041F20401C4F202010091FD
:1007E0000868086008680860086840F4806008606D
:1007F000086820F47C100860086840F4E81008607D
:1008000041F20001C4F20201086840F08070086003
:10081000FFE741F20000C4F20200006880010028F6
:1008200001D4FFE7F5E741F20401C4F202010868D0
:1008300020F003000860086840F002000860FFE74D
:1008400041F20400C4F20200006800F00C00082825
:1008500001D0FFE7F4E700E0FFE704B070470000D5
:1008600080B541F20002C4F20202106840F00100BB
:10087000106041F20401C4F2020108680023CFF6BF
:10088000FF031840086010684FF6FF73CFF6F66359
:1008900018401060106820F480201060086820F470
:1008A000FE00086041F20801C4F202014FF41F008B
:1008B0000860FFF73FFF4EF60851CEF200014FF0FF
:1008C0000060086080BD000082B001908DF80310C8
:1008D0009DF8030030B1FFE70199088840F001005E
:1008E000088005E00199088820F001000880FFE7F2
:1008F00002B0704782B001908DF803109DF803009C
:1009000040B1FFE70199B1F8440040F40040A1F87C
:10091000440007E00199B1F844006FF3DF30A1F81B
:100920004400FFE702B0704784B0039002910020BA
:10093000ADF80600ADF80400ADF802000399088C8C
:1009400020F0010008840398008CADF8040003989F
:100950008088ADF802000398008BADF80600BDF862
:10096000060020F07000ADF80600BDF8060020F08B
:100970000300ADF8060002980188BDF806000843A0
:10098000ADF80600BDF8040020F00200ADF8040048
:1009900002980189BDF804000843ADF804000298EC
:1009A0004188BDF804000843ADF80400039842F6FE
:1009B0000041C4F20101884220D0FFE7039843F2CE
:1009C0000041C4F20101884218D0FFE7039844F2C5
:1009D0000001C4F20101884210D0FFE7039844F2FD
:1009E0000041C4F20101884208D0FFE7039844F6B1
:1009F0000001C4F20101884235D1FFE7BDF80400CF
:100A000020F00800ADF8040002984189BDF8040008
:100A10000843ADF80400BDF8040020F00400ADF870
:100A2000040002988188BDF804000843ADF8040072
:100A3000BDF8020020F48070ADF80200BDF802009D
:100A400020F40070ADF8020002988189BDF8020020
:100A50000843ADF802000298C189BDF802000843BE
:100A6000ADF80200FFE7BDF8020003998880BDF8E9
:100A70000600039908830298C08803998886BDF808
:100A800004000399088404B07047000084B0039008
:100A900002910020ADF80600ADF80400ADF80200A8
:100AA0000399088C20F0100008840398008CADF89E
:100AB000040003988088ADF802000398008BADF81D
:100AC0000600BDF8060020F4E040ADF80600BDF8D1
:100AD000060020F44070ADF8060002980188BDF8C9
:100AE000060040EA0120ADF80600BDF8040020F041
:100AF0002000ADF8040002980189BDF8040040EA26
:100B00000110ADF8040002984188BDF8040040EAE5
:100B10000110ADF80400039842F60041C4F201014F
:100B2000884208D0FFE7039843F20041C4F2010174
:100B3000884239D1FFE7BDF8040020F08000ADF80D
:100B4000040002984189BDF8040040EA0110ADF8A4
:100B50000400BDF8040020F04000ADF80400029845
:100B60008188BDF8040040EA0110ADF80400BDF82A
:100B7000020020F48060ADF80200BDF8020020F40D
:100B80000060ADF8020002988189BDF8020040EAD9
:100B90008100ADF802000298C189BDF8020040EA68
:100BA0008100ADF80200FFE7BDF8020003998880DC
:100BB000BDF80600039908830298C0880399088746
:100BC000BDF804000399088404B0704784B0039012
:100BD00002910020ADF80600ADF80400ADF8020067
:100BE0000399088C20F4807008840398008CADF879
:100BF000040003988088ADF802000398808BADF85C
:100C00000600BDF8060020F07000ADF80600BDF843
:100C1000060020F00300ADF8060002980188BDF838
:100C200006000843ADF80600BDF8040020F400708B
:100C3000ADF8040002980189BDF8040040EA0120E3
:100C4000ADF8040002984188BDF8040040EA012094
:100C5000ADF80400039842F60041C4F20101884255
:100C600008D0FFE7039843F20041C4F20101884233
:100C700039D1FFE7BDF8040020F40060ADF80400AE
:100C800002984189BDF8040040EA0120ADF8040053
:100C9000BDF8040020F48060ADF80400029881885B
:100CA000BDF8040040EA0120ADF80400BDF80200E0
:100CB00020F48050ADF80200BDF8020020F400508E
:100CC000ADF8020002988189BDF8020040EA0110E7
:100CD000ADF802000298C189BDF8020040EA011097
:100CE000ADF80200FFE7BDF8020003998880BDF867
:100CF0000600039988830298C08803998887BDF805
:100D000004000399088404B07047000084B0039085
:100D100002910020ADF80600ADF80400ADF8020025
:100D20000399088C20F4805008840398008CADF857
:100D3000040003988088ADF802000398808BADF81A
:100D40000600BDF8060020F4E040ADF80600BDF84E
:100D5000060020F44070ADF8060002980188BDF846
:100D6000060040EA0120ADF80600BDF8040020F4BA
:100D70000050ADF8040002980189BDF8040040EA73
:100D80000130ADF8040002984188BDF8040040EA43
:100D90000130ADF80400039842F60041C4F20101AD
:100DA000884208D0FFE7039843F20041C4F20101F2
:100DB00088420FD1FFE7BDF8020020F48040ADF873
:100DC000020002988189BDF8020040EA8110ADF866
:100DD0000200FFE7BDF8020003998880BDF8060015
:100DE000039988830298C0880399A1F84000BDF850
:100DF00004000399088404B07047000083B0029097
:100E000001910020ADF8020002980088ADF80200C0
:100E1000029842F60041C4F20101884225D0FFE762
:100E2000029843F20041C4F2010188421DD0FFE75D
:100E30000298B0F1804F18D0FFE7029840F20041CD
:100E4000C4F20001884210D0FFE7029840F600018A
:100E5000C4F20001884208D0FFE7029840F6004142
:100E6000C4F2000188420ED1FFE7BDF8020020F075
:100E70007000ADF8020001984188BDF802000843F7
:100E8000ADF80200FFE7029841F20001C4F2000150
:100E9000884216D0FFE7029841F20041C4F20001F7
:100EA00088420ED0FFE7BDF8020020F44070ADF894
:100EB00002000198C188BDF802000843ADF80200A5
:100EC000FFE7BDF802000299088001988088029926
:100ED00088850198008802990885029842F60041A9
:100EE000C4F20101884220D0FFE7029843F200419A
:100EF000C4F20101884218D0FFE7029844F20001D1
:100F0000C4F20101884210D0FFE7029844F2004188
:100F1000C4F20101884208D0FFE7029844F60001BC
:100F2000C4F20101884205D1FFE70198007A0299D5
:100F30000886FFE702990120888203B0704700000D
:100F400084B0ADF80E00ADF80C10ADF80A20032007
:100F5000ADF80200BDF80E0001280AD1FFE7BDF888
:100F6000021040F60000C4F2010000EB8100019085
:100F70002FE0BDF80E0002280AD1FFE7BDF80210ED
:100F800040F60040C4F2010000EB810001901FE038
:100F9000BDF80E0003280AD1FFE7BDF8021041F2A8
:100FA0000000C4F2010000EB810001900FE0BDF8E9
:100FB0000E0004280AD1FFE7BDF8021041F20040FC
:100FC000C4F2010000EB81000190FFE7FFE7FFE7BB
:100FD000FFE7BDF80A0058B1FFE7BDF80A00BDF809
:100FE0000C1000FA01F2019908681043086009E04A
:100FF000BDF80C10012000FA01F201990868904335
:101000000860FFE704B0704780B58AB00991089086
:10101000042007900898099905910490FFE7079824
:10102000411E0791F8B1FFE7FFE704980290059988
:101030000391002201920023CBF6F07300F002FC32
:10104000019B024602988C460399CDF814C0049285
:101050001A4600F0A1FE08B9FFE7E6E708980999EB
:1010600005910490DBE70AB080BD000081B00090DC
:10107000FFE70098411E009108B1FFE7F9E701B0D2
:101080007047000080B588B0DDF828C08DF81F00DB
:101090008DF81E108DF81D208DF81C300DF11F00ED
:1010A0000DF11E01029100F0A3FB0DF11D0007A937
:1010B000019100F09DFB019802999DF81E20C2F15C
:1010C000DC028DF81E209DF81C20C2F1DC028DF898
:1010D0001C2000F08DFB0A98000A8DF81B000A986E
:1010E0008DF81A009DF81F009DF81E109DF81D2018
:1010F0009DF81C3000F008FB012002210022039221
:10110000FFF71EFF03980590FFE705989DF81C1058
:101110009DF81E20891A013188421FDAFFE700205E
:101120000490FFE704989DF81D109DF81F20891A70
:10113000013188420DDAFFE79DF81B0000F06EFADE
:101140009DF81A0000F06AFAFFE704980130049055
:10115000E8E7FFE7059801300590D6E70221012274
:101160001046FFF7EDFE08B080BD000080B586B0E8
:101170008DF81700ADF8141041F21801C4F2020105
:10118000086840F0010008609DF8170001283AD176
:10119000FFE741F21C01C4F20201086840F40010AC
:1011A0000860022003900621032304931A4600F0EE
:1011B0006DF80398049B07211A4600F067F845F282
:1011C0000041C4F20001088840F40040088008880B
:1011D0006FF3DF30088045F20442C4F200020820B9
:1011E0001080BDF8140045F21C42C4F200021080C9
:1011F00045F22042C4F2000209201080088840F025
:10120000010008803FE09DF8170002283AD1FFE76F
:1012100041F21C01C4F20201086840F48000086039
:10122000022001900A21032302931A4600F02EF8AF
:101230000198029B0B211A4600F028F845F60001A0
:10124000C4F20001088840F40040088008886FF369
:10125000DF30088045F60402C4F200020820108046
:10126000BDF8140045F61C02C4F20002108045F6D9
:101270002002C4F2000209201080088840F001001A
:101280000880FFE7FFE706B080BD000084B0ADF83E
:101290000E00ADF80C10ADF80A20ADF80830BDF81E
:1012A0000C00ADF802000020ADF80000BDF80C0005
:1012B000082809DBFFE7BDF802000838ADF8020096
:1012C0000120ADF80000FFE7BDF80E00012812D1A3
:1012D000FFE741F21801C4F20201086840F004007F
:1012E0000860BDF8001040F60000C4F2010000EBF9
:1012F0008100019047E0BDF80E00022812D1FFE7FF
:1013000041F21801C4F20201086840F008000860C8
:10131000BDF8001040F60040C4F2010000EB81006F
:1013200001902FE0BDF80E00032812D1FFE741F233
:101330001801C4F20201086840F010000860BDF80E
:10134000001041F20000C4F2010000EB81000190A6
:1013500017E0BDF80E00042812D1FFE741F2180192
:10136000C4F20201086840F020000860BDF80010D7
:1013700041F20040C4F2010000EB81000190FFE760
:10138000FFE7FFE7FFE7BDF8020081000F2000FA4A
:1013900001F20199086890430860BDF80A00BDF8A1
:1013A00002108A009040BDF808100232914040EAD5
:1013B0000102019908681043086004B070470000FA
:1013C00080B584B00221012201921046FFF7B8FDDA
:1013D0000199002202920846FFF7B2FD019A03210B
:1013E00000911046FFF7ACFD00990198029AFFF7B3
:1013F000A7FD029844F20001C4F27F010391FFF7B8
:1014000003FE0099019A1046FFF79AFD029803998E
:10141000FFF7FAFD00F002F804B080BD80B58EB091
:101420001020039000210B9100F014F90B9911206A
:10143000059000F00FF90B9912200A9000F00AF9BC
:101440000B991320019000F005F90B9914200290DC
:1014500000F000F90B980021C4F224010491FFF779
:10146000D3FD05984FF6FF71069100F0F3F80A9846
:101470004FF4E04100F0EEF801986F2100F0EAF837
:10148000029844F65F1100F0E5F803984FF470619C
:1014900000F0E0F804990B98FFF7B6FD059806995F
:1014A00000F0D8F80B980021C4F249010C91FFF725
:1014B000ABFD01204FF48E7100F0CCF802204FF408
:1014C000807100F0C7F8032041F2300100F0C2F84B
:1014D0000B9907200D9000F0BDF8082040F2022182
:1014E00000F0B8F80B990B2000F0B4F80B990C2021
:1014F00000F0B0F80F2040F6017100F0ABF80B9946
:10150000152000F0A7F80B99202000F0A3F80B9904
:10151000212000F09FF80B99302000F09BF831203B
:10152000DB21079100F096F80B99322000F092F839
:101530000B99332000F08EF80799342000F08AF8D8
:101540000B99352000F086F83620AF2100F082F8A4
:101550000B99372000F07EF80799382000F07AF8D0
:101560000B99392000F076F80B99502000F072F8B2
:10157000512040F60801089100F06CF8522040F626
:101580000A0100F067F853200A2100F063F85420A4
:1015900040F6082100F05EF80899552000F05AF84E
:1015A0000B99562000F056F857204FF4206100F0B8
:1015B00051F858204FF4E261099100F04BF8099975
:1015C000592000F047F80A990D9800F043F80B985D
:1015D0000C99FFF719FD0D9841F2170100F03AF848
:1015E0000EB080BD80B584B08DF80F00012102914E
:1015F000002200920846FFF7A3FC009A02980221FD
:101600000191FFF79DFC9DF80F0000F0C9F80199CA
:10161000029A1046FFF794FC04B080BD80B584B0F8
:101620008DF80F0001200290022101910022FFF7A6
:1016300087FC029A10461146FFF782FC9DF80F00C6
:1016400000F0AEF80199029A1046FFF779FC04B059
:1016500080BD000080B582B0019000919DF805002A
:10166000FFF7C0FF9DF80400FFF7BCFF9DF80100E5
:10167000FFF7D4FF9DF80000FFF7D0FF02B080BD58
:1016800080B584B000200290039001202D21FFF747
:101690006DFDFEF7C5FE00F0BDF80220FEF78AFFE3
:1016A000FFF78EFE029968460160DC22B0230846EF
:1016B000FFF7E8FCFFE740F26001C2F200014FF4DF
:1016C000FA700860FFE740F26000C2F200000068B4
:1016D00040F6C311884216DCFFE740F26000C2F218
:1016E0000000006842F63441C4F201010880642021
:1016F000FFF7BCFCFFE740F26001C2F2000108689E
:1017000064300860DFE7D6E780B582B08DF8070067
:101710008DF806108DF805208DF804309DF8050031
:101720009DF80710884207DAFFE70DF105000DF17B
:10173000070100F05DF8FFE79DF804009DF8061032
:10174000884206DAFFE701A80DF1060100F050F823
:10175000FFE79DF805103620FFF77CFF9DF8071086
:101760003720FFF777FF9DF804103820FFF772FF4E
:101770009DF806103920FFF76DFF9DF80710202017
:10178000FFF768FF9DF806102120FFF763FF002098
:10179000FFF728FF2220FFF725FF02B080BD0000E1
:1017A00082B08DF80300FFE743F60800C4F20000A2
:1017B00000888007002801D4FFE7F5E79DF80300C3
:1017C00043F60C01C4F200010880FFE743F608006D
:1017D000C4F200000088C00708B9FFE7F6E743F647
:1017E0000C00C4F200000088019802B070470000AD
:1017F00083B002900191019800788DF8030002985F
:101800000078019908709DF803000299087003B0F0
:10181000704700004EF21001CEF200010020086077
:101820004EF21403CEF200036FF07F421A604EF2C4
:101830001802CEF200021060086840F0050008604F
:101840007047000010B591EA030F48BF83F00043D2
:1018500000F1BC81841A71EB030C05D2121943EB21
:101860000C03001B61EB0C014FEA1154A4EB135C59
:10187000DFF81CE11EEA430F18BF9EEA445F00F048
:10188000748021EA045123EA0E0343F48013DCF14F
:10189000200E32D322FA0CFE10EB0E0023FA0CFEBF
:1018A00041EB0E01CCF1200E03FA0EFE10EB0E0000
:1018B000CCF1200E51F10001B1F5801F32D201EBC5
:1018C000045112FA0EF2BDE8104058BF7047401C98
:1018D00038BF5FEA420218BF7047002814BF20F0EB
:1018E000010041F100014FEA410313F5001F38BF29
:1018F0007047A1F1C04100F05BB9012A43EB03023C
:10190000ACF1200CDCF11F0E32BF4FF0000E23FAB9
:101910000CF310EB030041EB0451B4EB115FD0D09A
:10192000A1EB045101F58011490801EB04515FEA74
:1019300030000ED350F1000038BF12FA0EFE08D16D
:10194000BDE81040C9E7401C38BF5FEA4202CAD177
:10195000C3E7BDE810404FEA410313F5001F38BF4D
:101960007047A1F1C04100F023B99EEA445F08D05E
:1019700011EA5E0FBDE8104004BF01F000410020F5
:101980007047BDE8104070B500F0C4F864FBBE3E7F
:101990000000E0FF491058BFC1F140415B1058BF43
:1019A000C3F140438B42EFF30080704751EA030CD0
:1019B00017D41CF5801F58BFBCF5801F00F10680AE
:1019C000994218BF704708BF9042704707D711F57A
:1019D000801F58BF13F5801F19D499427047894260
:1019E00070471CF5801F08D5BCF5801FF7D58B42CA
:1019F00018BF704708BF824270474FF4001C1CEBB1
:101A0000410F38BF1CEB430F01D28B42704770B5BA
:101A100000F080F8922449004FF000514FF08053BD
:101A2000FFF7B8BF51EA030C17D41CF5801F58BF4D
:101A3000BCF5801F00F10680994218BF704708BFAF
:101A40009042704707D711F5801F58BF13F5801FCC
:101A500019D499427047894270471CF5801F08D5F8
:101A6000BCF5801FF7D58B4218BF704708BF824274
:101A700070474FF4001C1CEB410F38BF1CEB430FA9
:101A800001D28B42704770B500F044F892244900AF
:101A90004FF080514FF00053FFF77CBF51EA030C29
:101AA00017D41CF5801F58BFBCF5801F00F10680BD
:101AB000994218BF704708BF9042704707D711F589
:101AC000801F58BF13F5801F19D49942704789426F
:101AD00070471CF5801F08D5BCF5801FF7D58B42D9
:101AE00018BF704708BF824270474FF4001C1CEBC0
:101AF000410F38BF1CEB430F01D28B42704770B5CA
:101B000000F008F8922449004FF000514FF0805344
:101B1000FFF740BF0EF1020E2EF0030E5EF8046BCD
:101B2000364205D4012A43EB030515F5001F12D8F0
:101B3000012841EB010C1CF5001F0CD80ED14FEA17
:101B4000D17C0CEB4C0C0CF1020C15F5001F08BFFE
:101B50004CEBD37C04E04FF0080C01E04FEAD37C5F
:101B60000CEB4C0526FA05F606F00706B6F1040C58
:101B700006D20EEB860CBDE870404CF0010C6047BD
:101B8000DFE80CF0090B02024FF00041A1F5002143
:101B90004FF0000070BD19461046012851EB0104BA
:101BA00018BFD4F5001484BF002001F0004170BDBF
:101BB0000808A0F500114FEA3101704710B591EA0D
:101BC000030F48BF83F000433FF544AE841A71EB26
:101BD000030C07D28CF0004C121943EB0C03001BD2
:101BE00061EB0C014FEA1154A4EB135CDFF8A4E1A4
:101BF0001EEA430F18BF9EEA445F00F0B48021EA5A
:101C0000045123EA6E035242C3EB6E0338BF5B1EDE
:101C1000DCF1200E25D322FA0CFE10EB0E0043FA65
:101C20000CFE41EB0E01CCF1200E03FA0EFE10EB80
:101C30000E00CCF1200E51F1000129D401EB04512A
:101C400012FA0EF2BDE8104058BF7047401C1CBF8E
:101C5000B2F1004F704700280CBF491C20F0010072
:101C6000704712EB020E43EB030218BF4FF0010E58
:101C70004EEA4202ACF1200CDCF11E0E56D943FABA
:101C80000CFE10EB0E00CCF11E0E51F1FF31D5D53C
:101C90000EF1010E12FA0EFE404141EB010101EB83
:101CA000445C5FEA5C5C10D901EB045110EBDE7020
:101CB00038BFBEF1004FBDE8104018BF7047002884
:101CC0000CBF491C20F00100704734D24FEAD42CDD
:101CD00024F4006411F500111BD0B1FA81F20B3A23
:101CE000A41AA41ED2F12003914030FA03F3194341
:101CF000904001EBCC7101EB0451002CBDE8104089
:101D0000A8BF704701F1C04101F000414FF0000051
:101D10007047B0FA80F310FA03F102D1BDE8104029
:101D20007047E41A173C4805C90AE2E701EB045181
:101D3000BDE81040704749104FEA300001EB0451F4
:101D4000BDE8104002E04FF0000170474A0008BFB4
:101D50000042F8D0B2F5001F28BF704701F00041E3
:101D60004FF0000070479EEA445F07D011EA5E0F13
:101D7000BDE8104004BF002100207047BDE81040BE
:101D800070B5FFF7C7FE00BF40DFF63E104683F098
:101D9000004170470000E0FF10B5FFF707FE0CBFE1
:101DA0000120002010BD10B5FFF700FE14BF012078
:101DB000002010BD10B5FFF735FE8CBF01200020BC
:101DC00010BD10B5FFF72EFE2CBF0120002010BD66
:101DD00010B5FFF763FE94BF0120002010BD10B5C1
:101DE000FFF75CFE34BF0120002010BDFC1D000881
:0C1DF000000000206806000098010008B8
:04000005080001DD11
:00000001FF
