:020000040800F2
:10000000F8060020A5020008AD020008AF020008B3
:10001000B1020008B3020008B502000800000000A9
:10002000000000000000000000000000B70200080F
:10003000B902000800000000BB020008BD02000871
:10004000BF020008BF020008BF020008BF0200088C
:10005000BF020008BF020008BF020008BF0200087C
:10006000BF020008BF020008BF020008BF0200086C
:10007000BF020008BF020008BF020008BF0200085C
:10008000BF020008BF020008BF020008BF0200084C
:10009000BF020008BF020008BF020008BF0200083C
:1000A000BF020008BF020008BF020008BF0200082C
:1000B000BF020008BF020008BF020008BF0200081C
:1000C000BF020008BF020008BF020008BF0200080C
:1000D000BF020008851B0008BF020008BF0200081D
:1000E000BF020008BF020008BF020008BF020008EC
:1000F000BF020008BF020008BF020008BF020008DC
:10010000BF020008BF020008BF020008BF020008CB
:10011000BF020008BF020008BF020008BF020008BB
:10012000BF020008BF020008BF020008BF020008AB
:1001300000F002F800F0A6F814A696E8000CB2440D
:10014000B344DA4501D100F09DF8BAE80F000FA6DC
:1001500096E83000A5EB040504EB0607AAEB0704BC
:10016000A7F101074FEA15154FEA3414A4F1010471
:10017000AC4201D300F086F813F0010F18BFFB1A50
:1001800043F0010300F001F8DBE7184708320000F4
:1001900028320000103A24BF78C878C1FAD8520734
:1001A00024BF30C830C144BF04680C6070470000F1
:1001B000704700000023002400250026103A28BFC5
:1001C00078C1FBD8520728BF30C148BF0B607047C9
:1001D0006E2900F05D81702900F09F82662903F08E
:1001E0001F80652903F01C80672903F019806129AD
:1001F00003F0188003681B0A28BF41F080016929B9
:1002000000F00A81642900F00781752900F004815B
:100210006F2900F02D82782900F06B82E92900F027
:10022000C781E42900F0C481F52900F0C181EF29DC
:1002300000F02A82F82900F06A820368DB0928BFEF
:1002400041F08001632900F06B87732900F070870B
:10025000E32900F07B87F32900F0808700207047B6
:100260001FB500F0D1FF04000020002102F0C2FF02
:10027000401C60600020002102F0A6FFE0601FBD6E
:1002800010B510BD00F092FF1146FFF7E9FF02F034
:1002900099FA01F06FF803B4FFF7F2FF03BC01F025
:1002A000B7F800000948804709480047FEE7FEE725
:1002B000FEE7FEE7FEE7FEE7FEE7FEE7FEE7FEE716
:1002C00004480549054A064B704700007D1900089F
:1002D00031010008F8000020F8060020F802002094
:1002E000F80200200FB41CB5084B06AA7B446946EF
:1002F0000090059800F0E5F804460020694600F0FB
:10030000F3F820461CBC5DF814FB0000F901000066
:1003100010B5431C02E010F8011B71B18107FAD13E
:100320004FF0013202C88C1A8C4314EAC211F9D082
:10033000C01A0A0603D0C01E10BDC01A10BD0A04A0
:1003400001D0801E10BD0902FCD0401E10BD7047B8
:100350007047704770B5044685690068C10601D5CD
:10036000302600E02026C00707D070BDD4E9012167
:1003700030469047206A401C20626D1EF6D570BD45
:1003800070B5044685690078C00707D170BDD4E90F
:10039000012120209047206A401C20626D1EF6D566
:1003A00070BD09684A0501D540B27047C905FCD542
:1003B00000B2704709684A0501D5C0B27047C90547
:1003C000FCD580B2704770B50C460546012A05D0B1
:1003D0002878800600D5EA69002302E0012305E0C1
:1003E0005B1C934202D2E05C0028F9D1A869E618B0
:1003F000C01AA861286A184428622846FFF7AAFF95
:1004000004E0D5E9012114F8010B9047B442F8D378
:100410002846FFF7B5FF70BD2DE9F04106460024E0
:1004200010687529314616A510D0FFF7BAFF0028CD
:1004300002DA404213A507E031688A0701D512A508
:1004400002E0490704D511A5012401E0FFF7B2FF3E
:1004500000210A2206F1240709E0B0FBF2FCB0FB00
:10046000F2F302FB1C00303078541846491C002877
:10047000F3D123462A463046BDE8F04100F061BA88
:10048000000000002D0000002B00000020000000F4
:1004900011680268006A530501D508700AE0D305A7
:1004A00001D5088006E0130603D5C217C1E9000292
:1004B00000E008600120704701694A1C0261087869
:1004C000704700B58FB0CDE9013100210591054994
:1004D0007944CDE903101146684600F029F90FB0C0
:1004E00000BD0000E5FFFFFF0A6802F8010B0A608B
:1004F000704700002DE9FF5F15468A460446DFF885
:10050000AC80F8440027D8E900103E46CDE9001041
:1005100010E03AF816106A4602A800F023FE411CCB
:1005200007D02178890603D5E269391891420DD8A0
:100530000744761C2078800602D5E069B84205DDC4
:10054000AE42E6DB3AF816000028E2D1A069C01BF3
:10055000A0612046FFF7FEFED8E90010CDE90010AB
:10056000002017E03AF818106A4602A800F0FAFDD9
:10057000B0F1FF3F81460BD000250DF1080B05E0DF
:10058000D4E901211BF8050090476D1C4D45F7D3B8
:1005900008F10100B0428046E4DB206A3844206262
:1005A0002046FFF7EDFEBDE8FF9F0000222D000072
:1005B0002DE9F0418046D21D22F007020025D2E944
:1005C0000002F52915A614D0011E72F1000106DA09
:1005D0000023D0EB030063EB020211A608E0D8F879
:1005E00000108B0701D50FA602E0490701D50EA622
:1005F00001251146002408F1240704E000F05CF90D
:1006000030323A55641C50EA0102F7D12B4632468B
:1006100021464046BDE8F04100F093B900000000DB
:100620002D0000002B0000002000000030B400214D
:1006300000F1240408E002F00705D208303542EA50
:100640004372DB086554491C52EA0305F3D1046880
:10065000002310A2250708D504F020040C4304D081
:10066000C46901230CA2641EC46130BC00F069B9E6
:1006700010B5044621461068FFF79CFE024620464E
:10068000BDE810400023D1E7D21D22F00701D1E9D7
:100690000023CBE70000000030000000F0B40D465E
:1006A0000188090502D5214C7C4402E01F4C7C44A2
:1006B0000E34002100F1240608E002F00F071209B1
:1006C000E75D42EA03721B097754491C52EA0307AB
:1006D000F3D102780023120704D5702D06D009B19A
:1006E000022311342246F0BC00F02BB90123103450
:1006F000F8E770B504460D4621461068FFF75AFE2C
:10070000024629462046BDE870400023C6E7D21DB8
:1007100022F00703D3E90023C0E70368126843F01F
:10072000200303600823C3610023B7E7842B000084
:100730002DE9F05F894604464FF0000ADFF874B1F6
:10074000FB44C0F820A02046E1688847002874D008
:10075000252806D0D4E901219047206A401C206258
:10076000F1E700265F462046E168884720280546D5
:1007700007DB312D05D2781910F8200C08B106439B
:10078000F1E7B00701D526F00406C4F81CA0002745
:10079000C4F818A02A2D09D0284602F00DFD38B360
:1007A00004EB8708303DC8F8185019E059F8041BCD
:1007B000204604EB87029161E1688847012F0546D6
:1007C00018D1E069002820DA26F020061DE0D8F8CC
:1007D000180000EB800005EB40003038C8F8180026
:1007E0002046E1688847054602F0E6FC0028EED185
:1007F000012F0AD02E2D08D12046E16888477F1CA2
:100800000546022F46F02006C4DBA069002803DA63
:10081000404246F00106A061F00701D026F0100624
:100820006C2D0BD0682D09D04C2D39D06A2D35D0C8
:10083000742D35D07A2D33D016E038E0E1682F469C
:1008400020468847B842054609D16C2F26D04FF480
:100850008060E168064320468847054604E06C2F27
:100860001AD04FF4807006430DB3A5F1410019284A
:1008700002D8203546F400664A46294620462660BE
:100880004E46FFF7A5FC80B101280BD0F61D26F0DF
:10089000070000F1080956E74020E4E78020D8E788
:1008A0000020D6E706F104094DE7284652E7206A02
:1008B000BDE8F09F142B000030B5B0F10A0271F1D1
:1008C00000034FEA900E4EEA817EB0EB0E0061EB22
:1008D00091014FEA101E4EEA017E10EB0E0041EB33
:1008E00011114FEA102E4EEA016E10EB0E0041EB93
:1008F00011214FEA104E4EEA014E10EB0E0041EB73
:100900001141401841F100014FEAD00040EA417026
:100910004FEAD1014FEA810444EA907410EB80055C
:1009200044EB01046D1944EB0404521BA3414FF046
:10093000000348BF0A3200D530BD401C41F1000120
:1009400030BD2DE9F0470D4699469246044600F128
:1009500024080168880604D5E06921F010012160AF
:1009600000E00120A84201DD471B00E00027A1694B
:100970007A1902EB0900081AA0612078C00602D497
:100980002046FFF7E7FC002608E0D4E901211AF829
:1009900006009047206A401C761C20624E45F4DB1E
:1009A0002078C0060AD52046FFF7D4FC06E0D4E93B
:1009B000012130209047206A401C2062381EA7F198
:1009C0000107F4DC07E0D4E9012118F8050090479D
:1009D000206A401C2062281EA5F10105F3DC204698
:1009E000FFF7CEFC2078000602D50220BDE8F08794
:1009F0000120FBE72DE9FF4F0C461E464FF0FF3765
:100A00008BB0D2E90001DDF860800A908A46C1F31C
:100A10000A5505B93D46002108464FF00000BAF1DD
:100A2000000F00F4400005DA00EB80004FF44001B5
:100A300001EA50004FEA9059B9F1010F00DDB946C3
:100A40000A9850EA4A000ED044F61050A5F2FF353D
:100A500045432F14B8F1000F1ED07542291E1EDD2C
:100A6000C9F100021CE0B8F1010F4FF0000001D005
:100A7000302103E0F24305E02154401CB042FBDB8F
:100A800030460022002121540B99C1F80880C1E9A9
:100A900000200FB0BDE8F08FBD1B6D1CDEE74A469D
:100AA00000DA694206A800F0F3FB06AB93E8070002
:100AB00003AB83E8070050460A9901F0A0FF8DE8D8
:100AC0000700A0F500501F3800900398002D0ADDA4
:100AD00042F21F014A460844002303A903906846D6
:100AE00002F00AFA09E0A0F500504A461F38002338
:100AF00003A90390684602F014FA8DE80700000489
:100B0000000C03D04FF0FF30410800E01046B8F170
:100B1000000F03D00022009215461EE0751E05D47A
:100B2000FFF7CAFE303262556D1EF9D5B346012279
:100B3000084302D000227F1C04E02078302801D135
:100B400000227F1E002A099784D01DE0112D07DAAC
:100B5000FFF7B2FE303262556D1C50EA0102F5D14A
:100B6000084302D00098C8B10EE00021681E05E0DD
:100B7000235C625C63542254401E491C8142F7DBB3
:100B8000AB46A81B401E0990002004F80B000B98F0
:100B9000099AC0F80880C0E9002B7AE711264FF0C7
:100BA000000857E72DE9F04F88460446D21D22F091
:100BB000070191B0D1E90001CDE90A0102F0E8FA9C
:100BC00002460B98C00F01D02D2007E02068810756
:100BD00001D52B2002E0202101EAC000032A099060
:100BE00001D0072A05DB03464146204600F010FBF2
:100BF0000BE12078800601D5E06900E00620B8F11D
:100C0000650F814606D0B8F1660F18D0B8F1670FAE
:100C100070D131E00020B9F1110F009001DB1123F8
:100C200001E009F101030AAA01A90CA8FFF7E2FEFD
:100C3000DDE90C70002609F10105834647E001203B
:100C40004B4600904FF000470AAA01A90CA8FFF7F5
:100C5000D1FEDDE90DB00C995D46002610B909F111
:100C600001000D18B9EB050003D4C0F1FF3609F1FE
:100C70000105A5EB09002BE0B9F1010F01DA4FF0F6
:100C800001090020B9F1110F0090484601DD112340
:100C900000E003460AAA01A90CA8FFF7ABFEDDE9B4
:100CA0000C704D4600268346207800070AD4AB45D9
:100CB00000DA5D4601A8012D04DD411911F8011C7F
:100CC000302907D04F4502DA17F1040F04DA01206A
:100CD00082460FE06D1EEEE7002F02DCED1B3E4466
:100CE00003E0781CA84200DD7D1CB81B00F1010A5E
:100CF0004FF000472078000703D4AA4501DB4FF0EE
:100D0000FF3A0021B7F1004F0DF143088DF8431071
:100D100024D002202B23002F01DA7F422D230A2129
:100D2000021EA0F1010000DC5FB197FBF1FC97FB14
:100D3000F1F201FB1C7C17460CF1300C08F801CDD8
:100D4000EEE7A8F1010003702188090501D54521CE
:100D500000E06521A0F1010800F8011C09980FA925
:100D6000A1EB0807FF1D00B10120411901EBEA705A
:100D7000A1693844081A401EA0612078C00602D438
:100D80002046FFF7E7FA099828B1D4E901219047F6
:100D9000206A401C20622078C00622D52046FFF73A
:100DA000D9FA1EE0002E04DBB34502DD01A8805D08
:100DB00000E03020D4E901219047206A401C2062E5
:100DC000761CAAF101005FEA000A0AD100F01CFAC1
:100DD000C0680168405CD4E901219047206A401C4A
:100DE0002062281EA5F10105DCDC07E0D4E9012121
:100DF00018F8010B9047206A401C2062381EA7F1AA
:100E00000107F3DC2046FFF7BBFA032011B041E6EF
:100E10002DE9F04F04460D46D21D22F0070089B09F
:100E2000D0E900974846394602F0B2F90246F80F79
:100E300001D02D2307E02068810701D52B2302E094
:100E4000202101EAC0038DF820300BB1012000E021
:100E50000020032A824601D0072A04DB29462046C7
:100E600000F0D6F93FE12078800601D40D2500E09E
:100E7000E569C7F30A560D2D49DA00214FEA175BE1
:100E800008464FF00000002F00F4400007DA00EBA6
:100E900080004FF4400100EBD07001EA6000811542
:100EA000012901DD4FF0FF3100224FEA850CBCF132
:100EB000180F06D31346ACF118004FF08052C24011
:100EC00003E04FF4801323FA0CF30CF10C0CBCF18B
:100ED000200F04D3ACF1200C09FA0CF001E007FA62
:100EE0000CF000294FF0004801DD18B90FE00ED1D9
:100EF00040450CD319EB02095F4121B9404502D1AD
:100F00009F4329EA0209BBEB175F00D0761C2088BB
:100F1000000502D57B48784402E07A4878441938C5
:100F200008AA302302F80A30037C0AF10101002EDE
:100F30000AF1020A53546A4602DC4FF0300101E024
:100F40004FF031014FF001088DF8001002D0A6F2E9
:100F5000FF3603E059EA470100D06B4E002D02DC5A
:100F60002178090704D54FF002082E218DF80110D1
:100F7000C44600210BE0C7F303433F01C35C491C97
:100F80006D1E02F80830052908F1010801DA002D6C
:100F9000F1DC00210CE000EB1973491C1B786D1E7D
:100FA000082902F808304FEA091908F1010801DAA6
:100FB000002DF0DC21688B0602D516E0A8F10108AF
:100FC000E04505DD02EB080313F8013C302BF5D0BA
:100FD000B8F1000F09DD02EB080313F8013C2E2BDA
:100FE00003D1090701D4A8F10108002D05DD3E2138
:100FF00002F808106D1E08F10108407C002E02F86E
:10100000080008F1010804DA2D20764202F80800F1
:1010100002E02B2002F808000A214FF47A70864281
:1010200008F101080BDB96FBF0F3303302F80830CF
:1010300096FBF0F308F1010800FB136601E0642E53
:101040000CDB642096FBF0F3303302F8083096FB9B
:10105000F0F308F1010800FB136601E00A2E06DB3D
:1010600096FBF1F0303002F8080008F1010896FB19
:10107000F1F001FB1060303002F80800A16908F1BE
:10108000010808EB050202EB0A00081AA0612078AB
:10109000C00602D42046FFF75DF9216A08AE01EBD5
:1010A0000A00206204E0D4E9012116F8010B904700
:1010B000BAF1010AF7D22078C00602D52046FFF720
:1010C00049F96E4609E016F8010B3E280FD0D4E925
:1010D00001219047206A401C2062B8F10108F2D239
:1010E0002046FFF74DF909B00320BDE8F08F206AD4
:1010F0002844206203E0D4E90121302090476D1E8E
:10110000EBD3F8E76223000002FCFFFF10B5436950
:1011100013B1AFF3008001E0FFF755F9012010BDD6
:10112000127800F124010A7000224A700122EDE7D2
:1011300011684FF0FF32E9E710B5436913B1AFF31F
:10114000008001E0FFF7D6F9012010BD128800F100
:10115000240182840022C2840122EDE711684FF04D
:10116000FF32E9E72DE9F04116460C46054600F04E
:1011700043F8036893F80101012807D0FF2C12D827
:10118000185D80B101202C70BDE8F081D3F8070113
:101190003246214603F20713C7182846BC46BDE86D
:1011A000F041002360474FF0FF30EDE7754600F057
:1011B000EBF8AE4605006946534620F00700854629
:1011C00018B020B5FFF77CF8BDE820404FF00006CE
:1011D0004FF000074FF000084FF0000BAC46ACE8B2
:1011E000C009ACE8C009ACE8C009ACE8C00921F00E
:1011F00007018D467047000010B500F005F8001D8E
:1012000010BD00BFF11F00000048704730000020F3
:101210002DE9F0411F46044603260168072A01F420
:10122000006004DB08B116A505E016A503E008B1CF
:1012300015A500E015A521F010002060A069C01ED2
:10124000A0610FB1401EA0612046FFF783F84FB1A7
:10125000D4E9012138469047206A401C2062C01C16
:10126000206206E0206AFAE7D4E9012115F8010BB3
:101270009047761EF8D22046FFF782F8BDE8F0814D
:101280004E414E006E616E00494E4600696E66002A
:101290002DE9F047814616468AB0354878440DC896
:1012A0008DE80D0032487844801C03AC0DC884E8FA
:1012B0000D0041F69B300844372190FBF1F290FB82
:1012C000F1F5A5F1800501FB12041B3C02D5644237
:1012D000012000E00020DFF898A080460027FA44B3
:1012E000AAF1BE0A0EE0E0070AD03246684607EBD4
:1012F000470101230AEB810101F013FE8DE807008D
:1013000064107F1C002CEED1194F7F44AE3F19E0D2
:10131000E80715D007EB04100DF1180A90E80E004D
:101320008AE80E00C068F04201D198190890324650
:10133000012306A903A801F0F4FD03AB83E807002D
:101340006D10641C002DE3D14FF001033246694655
:10135000B8F1000F03A802D001F0CEFD01E001F0CA
:10136000E0FDC9E90001C9F808200AB0BDE8F0872E
:101370006C20000010B50446AFF300802046BDE8A5
:101380001040FEF788BF00000048704710000020A2
:101390004FF0013C50F8042B51F8043B9A4221D104
:1013A000A2EB0C03934313EACC1317D150F8042B90
:1013B00051F8043B9A4215D1A2EB0C03934313EA74
:1013C000CC130BD150F8042B51F8043B9A4209D1AD
:1013D000A2EB0C03934313EACC13DBD04FF00000D5
:1013E000704700BFD01A01BAB1FA81F101F01801BB
:1013F00022FA01F0CB40DBB2C0B2C01AC1F1200129
:101400002CFA01F3D11A914311EAC311E6D17047C6
:1014100001491820ABBEFEE726000200704700001D
:1014200080B54FF08040002100F0F8FAFFE74FF060
:10143000804000F0EDFAB0F57A7F01DAFFE7F6E7D9
:1014400080BD000080B582B00190FFE7019830B107
:10145000FFE7FFF7E5FF019801380190F6E702B0DA
:1014600080BD000080B582B001904FF08040002127
:1014700000F0D4FAFFE74FF0804000F0C9FA01997C
:10148000884201D2FFE7F6E702B080BD88B007903E
:101490000691002005900490039002900190009026
:1014A0000698C07800F00F0005900698C078C00636
:1014B000002806D5FFE7069881780598084305902F
:1014C000FFE70698007800284BD0FFE707980068F0
:1014D000019000200390FFE7039807283DD8FFE71D
:1014E00003990120884002900698008802990840DC
:1014F00004900498029988422AD1FFE7039880005B
:10150000029002990F20884000900099019888432A
:1015100001900598029900FA01F1019808430190A1
:101520000698C078282806D1FFE703990120884053
:10153000079948610BE00698C078482806D1FFE774
:1015400003990120884007990861FFE7FFE7FFE75B
:10155000FFE7039801300390BEE701980799086000
:10156000FFE706980088B0F5807F50DBFFE707981B
:101570004068019000200390FFE70398072842D8B5
:10158000FFE7039800F108010120884002900698C7
:1015900000880299084004900498029988422DD14D
:1015A000FFE703988000029002990F208840009086
:1015B00000990198884301900598029900FA01F179
:1015C0000198084301900698C078282808D1FFE7C1
:1015D000039800F108010120884007994861FFE75E
:1015E0000698C078482808D1FFE7039800F1080161
:1015F0000120884007990861FFE7FFE7FFE70398AC
:1016000001300390B9E7019807994860FFE708B0F7
:101610007047000080B582B08DF807008DF8061085
:101620009DF807009DF806204E2100F075FC02B0E1
:1016300080BD000080B582B08DF807008DF80610DF
:101640009DF8070000F0C0FD9DF807000021FFF79E
:10165000E1FF9DF807009DF8061000F0D7FC9DF80B
:10166000070000F0E7FD02B080BD000082B00190ED
:101670008DF803109DF8030048B1FFE7019A41F28D
:101680001C01C4F2020108681043086008E0019AD6
:1016900041F21C01C4F20201086890430860FFE7B0
:1016A00002B0704782B001908DF803109DF80300DE
:1016B00048B1FFE7019A41F21801C4F2020108683B
:1016C0001043086008E0019A41F21801C4F20201D7
:1016D000086890430860FFE702B0704786B0059045
:1016E0000020049003900290019041F20400C4F2A3
:1016F0000200006800F00C0004900498009040B1D3
:10170000FFE7009804280BD0FFE7009808280ED0C8
:1017100047E0059941F20020C0F27A00086047E0F6
:10172000059941F20020C0F27A00086040E041F2E1
:101730000400C4F20200016801F470110391006812
:1017400000F4803002900399022000EB9140039056
:10175000029848B9FFE7039840F60011C0F23D0136
:101760004843059908601BE041F20400C4F20200FE
:1017700000688003002809D5FFE7039840F60011B0
:10178000C0F23D0148430599086008E0039841F222
:101790000021C0F27A01484305990860FFE7FFE79E
:1017A00006E0059941F20020C0F27A000860FFE7E8
:1017B00041F20400C4F20200016801F0F00104915A
:1017C000049909090491049A43F22831C0F60001F2
:1017D0008A5C0192059B1A68DDF804C022FA0CF2BB
:1017E0005A60026802F4E0620492049A120A0492B7
:1017F000049A8A5C0192059B5A68DDF804C022FABB
:101800000CF29A60026802F460520492049AD20ABE
:101810000492049A895C0191059A5168019BD94010
:10182000D160006800F4404004900498800B04905C
:10183000049943F22430C0F60000405C0190059901
:10184000C868019AB0FBF2F0086106B0704700006A
:1018500080B500F001F880BD84B0002003900290B4
:1018600041F20001C4F20201086840F480300860CF
:10187000FFE741F20000C4F20200006800F400300B
:101880000290039801300390FFE702990020019035
:1018900039B9FFE70398B0F5A06018BF01200190A7
:1018A000FFE70198C0070028E3D1FFE741F20000FD
:1018B000C4F2020000688003002803D5FFE701207E
:1018C000029002E000200290FFE70298012851D127
:1018D000FFE742F20001C4F20201086840F0100084
:1018E0000860086820F007000860086840F00200FF
:1018F000086041F20401C4F2020100910868086026
:1019000008680860086840F480600860086820F48F
:101910007C100860086840F4E810086041F200019B
:10192000C4F20201086840F080700860FFE741F2ED
:101930000000C4F2020000688001002801D4FFE723
:10194000F5E741F20401C4F20201086820F0030047
:101950000860086840F002000860FFE741F20400F8
:10196000C4F20200006800F00C00082801D0FFE774
:10197000F4E700E0FFE704B07047000080B541F2F3
:101980000002C4F20202106840F00100106041F24F
:101990000401C4F2020108680023CFF6FF031840D7
:1019A000086010684FF6FF73CFF6F66318401060BA
:1019B000106820F480201060086820F4FE000860A1
:1019C00041F20801C4F202014FF41F000860FFF762
:1019D0003FFF4EF60851CEF200014FF00060086064
:1019E00080BD000082B001908DF803109DF80300C7
:1019F00030B1FFE70199088840F00100088005E058
:101A00000199088820F001000880FFE702B07047C4
:101A100081B000900098808C01B0704782B0019036
:101A2000ADF80210BDF802000199888402B0704739
:101A300083B0029001910020ADF802000298008866
:101A4000ADF80200029842F60041C4F2010188425A
:101A500025D0FFE7029843F20041C4F20101884219
:101A60001DD0FFE70298B0F1804F18D0FFE7029831
:101A700040F20041C4F20001884210D0FFE7029812
:101A800040F60001C4F20001884208D0FFE7029846
:101A900040F60041C4F2000188420ED1FFE7BDF8D4
:101AA000020020F07000ADF8020001984188BDF8F6
:101AB00002000843ADF80200FFE7029841F200017E
:101AC000C4F20001884216D0FFE7029841F20041BB
:101AD000C4F2000188420ED0FFE7BDF8020020F4F6
:101AE0004070ADF802000198C188BDF802000843BB
:101AF000ADF80200FFE7BDF80200029908800198E6
:101B00008088029988850198008802990885029842
:101B100042F60041C4F20101884220D0FFE702985A
:101B200043F20041C4F20101884218D0FFE7029855
:101B300044F20001C4F20101884210D0FFE702988C
:101B400044F20041C4F20101884208D0FFE7029844
:101B500044F60001C4F20101884205D1FFE7019873
:101B6000007A02990886FFE702990120888203B073
:101B70007047000080B582B00190019800F0ACF988
:101B800002B080BD80B543F60000C4F2010040F20F
:101B9000255100F051F8B8B3FFE743F60000C4F256
:101BA0000100FFF7E7FF014640F28500C2F20000A6
:101BB00001700078212813D1FFE740F2F001C2F252
:101BC00000010120086040F2EC01C2F200010B6844
:101BD00040F28602C2F200020020D054086012E0F7
:101BE00040F28500C2F20000007840F2EC01C2F23F
:101BF00000010B6840F28602C2F20002D05408686D
:101C000001300860FFE7FFE780BD000082B001906F
:101C10008DF803109DF8030030B1FFE70199888922
:101C200040F40050888105E00199888920F4005033
:101C30008881FFE702B0704786B00590ADF81210BA
:101C400000200390029001908DF80300BDF812006F
:101C500040F66A11884201D1FFE7FFE79DF81200C4
:101C600040090190BDF8120000F01F000290029997
:101C70000120884002900198012806D1FFE70598CD
:101C8000818902980840029010E00198022806D14C
:101C9000FFE70598018A02980840029005E0059840
:101CA000818A029808400290FFE7FFE79DF8130041
:101CB00003900399012088400390059801880398B8
:101CC00008400390029838B1FFE7039820B1FFE77E
:101CD00001208DF8030003E000208DF80300FFE7EA
:101CE0009DF8030006B0704786B00590ADF812105D
:101CF0008DF8112000200390029001900090BDF813
:101D0000120040F66A11884201D1FFE7FFE705980B
:101D100000909DF8120040090390BDF8120000F0F9
:101D20001F00029002990120884001900398012829
:101D300004D1FFE700980C3000900CE003980228D3
:101D400004D1FFE700981030009003E000981430B1
:101D50000090FFE7FFE79DF8110030B1FFE7019A1F
:101D6000009908681043086005E0019A0099086826
:101D700090430860FFE706B07047000080B58CB064
:101D80000B900A910020099008900790069005900A
:101D90000A98808908B1FFE7FFE70B9805900B9838
:101DA000008A099009984CF6FF71084009900A983A
:101DB000C18809980843099009980B9908820B98E3
:101DC0008089099009984EF6F311084009900A9904
:101DD00088880A8910434989014309980843099072
:101DE00009980B9988810B98808A099009984FF679
:101DF000FF41084009900A98818909980843099091
:101E000009980B9988826846FFF768FC059843F6A5
:101E10000001C4F20101884203D1FFE70398089052
:101E200002E002980890FFE70B98808900040028E0
:101E30000AD5FFE70898192148430A99096849001B
:101E4000B0FBF1F0079009E00898192148430A997E
:101E500009688900B0FBF1F00790FFE7079848F2A6
:101E60001F51C5F2EB11A0FB01016FF00F0000EA5A
:101E700051000990079A09980009642100FB11207C
:101E800006900B9880890004002810D5FFE706997A
:101E9000322000EBC10048F21F51C5F2EB11A0FB4C
:101EA0000110C0F342110998084309900FE0069908
:101EB000322000EB011048F21F51C5F2EB11A0FBDC
:101EC0000110C0F34311099808430990FFE70998EE
:101ED0000B9908810CB080BD81B00090009880887B
:101EE0006FF35F2001B0704781B08DF803009DF95A
:101EF000030000280ED4FFE79DF9031001F01F0234
:101F0000012090404A094EF20011CEF2000141F842
:101F10002200FFE701B0704782B08DF807008DF80E
:101F200006108DF805209DF80700012833D1FFE742
:101F30009DF806009DF80510084345F21041C4F2D3
:101F400000010880FFE745F21440C4F20000008859
:101F50008007002801D4FFE7F5E7FFE745F21440CA
:101F6000C4F2000000888007002813D5FFE745F27F
:101F70001440C4F200000188009145F21841C4F2F7
:101F800000010988009100888007002801D4FFE73C
:101F900000E0E3E738E09DF80700022833D1FFE7CF
:101FA0009DF806009DF80510084345F61001C4F29F
:101FB00000010880FFE745F61400C4F20000008825
:101FC0008007002801D4FFE7F5E7FFE745F6140096
:101FD000C4F2000000888007002813D5FFE745F60B
:101FE0001400C4F200000188009145F61801C4F203
:101FF00000010988009100888007002801D4FFE7CC
:1020000000E0E3E7FFE7FFE702B0704781B08DF83B
:1020100003008DF802109DF8030001281ED1FFE790
:10202000FFE745F21440C4F20000008800060028D3
:1020300001D4FFE7F5E79DF8020045F21041C4F234
:1020400000010880FFE745F21440C4F20000008858
:102050000006002801D4FFE7F5E723E09DF8030020
:1020600002281ED1FFE7FFE745F61400C4F2000086
:1020700000880006002801D4FFE7F5E79DF802007C
:1020800045F61001C4F200010880FFE745F6140090
:10209000C4F2000000880006002801D4FFE7F5E73D
:1020A000FFE7FFE701B0704780B586B08DF81700F5
:1020B000ADF8141041F21801C4F20201086840F0B2
:1020C000010008609DF8170001283AD1FFE741F2AE
:1020D0001C01C4F20201086840F4001008600220EC
:1020E00003900621032304931A4600F0DDF80398B9
:1020F000049B07211A4600F0D7F845F20041C4F2CC
:102100000001088840F40040088008886FF3DF3041
:10211000088045F20442C4F2000208201080BDF895
:10212000140045F21C42C4F20002108045F2204225
:10213000C4F2000209201080088840F001000880E5
:102140003FE09DF8170002283AD1FFE741F21C0159
:10215000C4F20201086840F4800008600220019087
:102160000A21032302931A4600F09EF80198029B6D
:102170000B211A4600F098F845F60001C4F2000160
:10218000088840F40040088008886FF3DF3008803A
:1021900045F60402C4F2000208201080BDF81400C5
:1021A00045F61C02C4F20002108045F62002C4F27B
:1021B000000209201080088840F001000880FFE735
:1021C000FFE706B080BD000081B08DF803009DF8E8
:1021D0000300012813D1FFE745F20041C4F20001DA
:1021E000088840F480700880FFE745F21440C4F28C
:1021F00000000088C00708B9FFE7F6E718E09DF87F
:102200000300022813D1FFE745F60001C4F20001E4
:10221000088840F480700880FFE745F61400C4F297
:1022200000000088C00708B9FFE7F6E7FFE7FFE70F
:1022300001B0704782B08DF807009DF807000128B3
:1022400015D1FFE745F21440C4F200000088009069
:1022500045F21840C4F200000088009045F20041A9
:10226000C4F20001088840F4007008801AE09DF86C
:102270000700022815D1FFE745F61400C4F200005C
:102280000088009045F61800C4F200000088009015
:1022900045F60001C4F20001088840F4007008808F
:1022A000FFE7FFE702B0704784B0ADF80E00ADF86D
:1022B0000C10ADF80A20ADF80830BDF80C00ADF8F0
:1022C00002000020ADF80000BDF80C00082809DB72
:1022D000FFE7BDF802000838ADF802000120ADF8B4
:1022E0000000FFE7BDF80E00012812D1FFE741F220
:1022F0001801C4F20201086840F004000860BDF84B
:10230000001040F60000C4F2010000EB81000190D3
:102310002FE0BDF80E00022812D1FFE741F21801AC
:10232000C4F20201086840F008000860BDF800101F
:1023300040F60040C4F2010000EB8100019017E07C
:10234000BDF80E00032812D1FFE741F21801C4F2D4
:102350000201086840F010000860BDF8001041F26A
:102360000000C4F2010000EB81000190FFE7FFE7ED
:10237000FFE7BDF8020081000F2000FA01F2019989
:10238000086890430860BDF80A00BDF802108A0092
:102390009040BDF808100232914040EA01020199D4
:1023A00008681043086004B07047000080B582B030
:1023B0008DF807009DF8070043F27C33C0F6000358
:1023C0000121002200F0A0F902B080BD80B582B0EA
:1023D0008DF807009DF80700FFF7E8FF9DF807005C
:1023E00000F00AF89DF8070000F016F89DF80700C5
:1023F00000F022F802B080BD80B582B08DF80700F1
:102400009DF8070043F27C33C0F60003022100224E
:1024100000F07AF902B080BD80B582B08DF8070077
:102420009DF8070043F27C33C0F60003032100222D
:1024300000F06AF902B080BD80B582B08DF8070067
:102440009DF8070043F27C33C0F60003042100220C
:1024500000F05AF902B080BD80B586B08DF8170043
:102460008DF816109DF8170008210491FFF7E2F887
:102470000A200390FEF7F6FF9DF817000C21029149
:10248000FFF7D8F805200190FEF7ECFF9DF8170044
:102490009DF8161001F0F0010C31FFF7CBF803980E
:1024A000FEF7E0FF9DF817009DF8161001F0F0010F
:1024B0000831FFF7BFF81420FEF7D4FF02999DF80A
:1024C0001700FFF7B7F80198FEF7CCFF02999DF8C7
:1024D00017009DF8162062F30711FFF7ABF8039879
:1024E000FEF7C0FF04999DF817009DF8162062F3CF
:1024F0000711FFF79FF806B080BD000080B586B0D9
:102500008DF817008DF816109DF817000921049119
:10251000FFF790F80A200390FEF7A4FF9DF817003C
:102520000D210291FFF786F805200190FEF79AFF32
:102530009DF817009DF8161001F0F0010D31FFF71E
:1025400079F80398FEF78EFF9DF817009DF8161096
:1025500001F0F0010931FFF76DF81420FEF782FF5A
:1025600002999DF81700FFF765F80198FEF77AFFCA
:1025700002999DF817009DF8162062F30711FFF7E6
:1025800059F80398FEF76EFF04999DF817009DF81F
:10259000162062F30711FFF74DF806B080BD00006A
:1025A00080B58AB08DF827009DF827002D21FFF710
:1025B0007BFD1420FEF746FF9DF8270008210391BC
:1025C000FFF738F80A200490FEF74CFF9DF827002B
:1025D0000C210691FFF72EF805200890FEF742FF28
:1025E0009DF827003C210191FFF724F80498FEF79D
:1025F00039FF9DF8270038210291FFF71BF8049856
:10260000FEF720FF03999DF82700FFF713F80498C1
:10261000FEF728FF06999DF82700FFF70BF80898AA
:10262000FEF720FF01999DF82700FFF703F80498B3
:10263000FEF718FF02999DF82700FEF7FBFF012027
:102640000790FEF7FFFE03999DF82700FEF7F2FFC3
:102650000498FEF707FF06999DF82700FEF7EAFFAA
:102660000898FEF7FFFE01999DF82700FEF7E2FFAC
:102670000498FEF7F7FE02999DF82700FEF7DAFFAF
:102680000798FEF7DFFE03999DF82700FEF7D2FFBB
:102690000498FEF7E7FE06999DF82700FEF7CAFFAB
:1026A0000898FEF7DFFE9DF827002C210591FEF724
:1026B000C1FF0498FEF7D6FE9DF827002821FEF7FB
:1026C000B9FF05999DF82700FFF7C6FE0898FEF7A9
:1026D000B9FE06999DF82700FFF7BEFE0898FEF7A1
:1026E000B1FE07999DF82700FFF7B6FE0898FEF7A0
:1026F000A9FE9DF827000221FFF7AEFE0898FEF71D
:10270000A1FE0AB080BD000080B584B08DF80F0036
:102710008DF80E108DF80D2002930020ADF8060004
:102720009DF80E00013801460091032814D8009945
:10273000DFE801F002060A0E0020ADF806000CE00A
:102740004020ADF8060008E01420ADF8060004E0D3
:102750005420ADF8060000E013E09DF80F00BDF82E
:1027600006109DF80D2011448031C9B2FFF774FEA8
:102770006420FEF777FE9DF80F00029900F004F840
:10278000FFE704B080BD000080B584B08DF80F0075
:10279000029100200190FFE702980199405C70B11E
:1027A000FFE79DF80F000299019A895CFFF7A6FEEA
:1027B0000198013001906420FEF754FEECE704B06C
:1027C00080BD000080B588B000200590079000F023
:1027D000C1F800F0A1F802200490FFF7E1FE049890
:1027E000059A43F25D33C0F600030121FFF78CFF29
:1027F000FFE743F60000C4F2010040F22551FFF765
:102800001BFA68B1FFE7FFE743F60000C4F20100DE
:1028100040F22551FFF710FA08B1FFE7F4E7FFE7B0
:1028200043F60000C4F20100FFF756FB014640F2F8
:102830007000C2F2000001700078482841D1FFE723
:1028400000200690FFE70698039040F20000C2F2D5
:102850000000FDF75DFD01460398884230D2FFE796
:10286000069940F20000C2F20000425C40F27100A2
:10287000C2F20000019043F24531C0F60001FDF7BD
:1028800031FD019B9DF81820022102910846FFF7B7
:102890003BFF029843F24833C0F6000303210022B5
:1028A000FFF732FF029843F24133C0F600030421E0
:1028B0000522FFF729FFFFE7069801300690C2E7DF
:1028C00028E040F27000C2F200000078432820D1D6
:1028D000FFE702200090FFF779FD009943F23833BB
:1028E000C0F6000305220846FFF70EFF009843F2EA
:1028F0006F33C0F6000303221146FFF705FF00986F
:1029000043F25833C0F6000304210722FFF7FCFE10
:10291000FFE7FFE76DE7000080B586B00121029177
:102920000846FEF7A3FE0020ADF810004FF6FF703A
:10293000ADF812004720ADF80E004FF08040019036
:102940000DF10E01FFF774F801980299FFF74AF8AC
:1029500006B080BD80B58CB00420019001210691A5
:10296000FEF7A0FE06994FF48040FEF79BFE18206C
:102970008DF82F004FF40070ADF82C00032002906A
:102980008DF82E0040F60000C4F2010003900BA960
:102990000491FEF77BFD019B029A039804998DF840
:1029A0002F304FF48063ADF82C308DF82E20FEF7D9
:1029B0006DFD4FF4165007900020ADF828000C2153
:1029C000ADF82610ADF82400ADF82200ADF82000D7
:1029D00043F60000C4F20100059007A9FFF7CEF905
:1029E0000598069A40F22551FFF77EF92520FFF75A
:1029F0007BFA05980699FFF709F90CB080BD5FEAEC
:102A0000400C08BF91F0000F4FEA8C234FEAC1221F
:102A100043EA51514FEA1C5018BF00F5F0404FEA0D
:102A2000300018BF41F000415FEA6C5C00F0298083
:102A3000BCF1FF3F08BF40F080407047130C06BF59
:102A400012044FF0100C4FF0000C130E04BF1202D2
:102A50000CF1080C130F04BF12010CF1040C930FBE
:102A600004BF92000CF1020CD30F04BF52000CF112
:102A7000010C11464FF00002A0F11F00A0EB0C006A
:102A8000704711F0004F08BF704731F000413FF42C
:102A9000D5AF0B0C06BF09044FF0100C4FF0000C23
:102AA0000B0E04BF09020CF1080C0B0F04BF090147
:102AB0000CF1040C8B0F04BF89000CF1020CCB0F3E
:102AC00004BF49000CF1010CCCF1200322FA03F3FE
:102AD00041EA030102FA0CF2A0EB0C0000F1010044
:102AE0007047000023F07F4720F07F4C80EA03000E
:102AF00000F00040ACEB070303F57C5303F1FF0348
:102B00002DE9804909B44FEA144324EA03484FEA07
:102B1000154B25EA0B4E0FF2042606EB13273E78E1
:102B200003FB0667C7F5000707FB06F64FEAD64624
:102B300006F102064FEA543707FB066CCCF1005C45
:102B40004FEA1C472CEA074C0CFB06F507FB06F482
:102B500004EB15464FEA961649085FEA320234BF85
:102B600000204FF000404FEAD13706FB07FC4FEA48
:102B70001C4C0CFB0BF7D21B03FB0CF761EB0701A2
:102B80000CFB0EF7B0EB074072EB17420CFB08F79B
:102B900034BFA2EB0742B2EB074261EB17414FEAA9
:102BA0000C444FEA910706FB07FC4FEA1C4C0CFB58
:102BB0000BF7B0EBC74072EB573203FB0CF734BF97
:102BC000A2EBC742B2EBC74261EB57310CFB0EF7E9
:102BD000B0EBC70072EB57720CFB08F734BFA2EBE7
:102BE000C702B2EBC70261EB57714FEA816141EA5C
:102BF00092114FEA826242EA90124FEA806004EB3F
:102C0000CC04039F4FEAD13706FB07FC4FEA1C4C6C
:102C10000CFB0BF7D21B03FB0CF761EB07010CFB62
:102C20000EF7B0EB074072EB17420CFB08F734BF0E
:102C3000A2EB0742B2EB074261EB17414FEA8C551A
:102C400004EB9C244FEA910706FB07FC4FEA1C4C5F
:102C50000CFB0BF7B0EBC74072EB573203FB0CF7E2
:102C600034BFA2EBC742B2EBC74261EB57310CFB5A
:102C70000EF7B0EBC70072EB57720CFB08F734BFCE
:102C8000A2EBC702B2EBC70261EB57714FEA816159
:102C900041EA92114FEA826242EA90124FEA806062
:102CA00015EB4C2544F100044FEAD13706FB07FC35
:102CB0004FEA1C4C0CFB0BF7D21B03FB0CF761EB30
:102CC00007010CFB0EF7B0EB074072EB17420CFB51
:102CD00008F734BFA2EB0742B2EB074261EB1741A2
:102CE0004FEA813141EA92414FEA823242EA904210
:102CF0004FEA80304FEA0C7615EB1C1544F10004C6
:102D000048EA03434EEA0B484FF0000EB2EB080CC2
:102D100071EB030724BF624639464EEB0E0E4FF0AF
:102D2000000B0018524149414BEB0B0BB2EB080C66
:102D300071EB03077BF1000B24BF624639464EEB73
:102D40000E0E4FF0000B0018524149414BEB0B0B9C
:102D5000B2EB080C71EB03077BF1000B24BF62465A
:102D600039464EEB0E0E51EA020718BF46F0010637
:102D700016EB0E7655F1000254F1000103D5BDE8C3
:102D80008901BDE80088BDE88901BDE80048B619A1
:102D9000524141EB0101A3F10103704780807F7E26
:102DA0007D7C7B7A797877767675747372717170C1
:102DB0006F6E6E6D6C6C6B6A6A6968686766666573
:102DC0006464636362616160605F5F5E5E5D5D5C01
:102DD0005C5B5B5A5A595958585757565655555572
:102DE0005454535352525251515050504F4F4F4ED2
:102DF0004E4D4D4D4C4C4C4B4B4B4A4A4A49494920
:102E00004848484747474746464645454544444461
:102E10004443434343424242424141419C46002B8A
:102E200030D477002BD04FEA37071CB503B44FF0EE
:102E300010004FF01001BAF1000F06D0BCF1000FE6
:102E4000DCBF40F0080040F008014FF000000FBC6C
:102E5000BDE810400BF1010BBBF1010F08BF5FEAA9
:102E6000170722BF12F1010211F101014FF00041D9
:102E700043F1000300F0004043EA00007047F9D33B
:102E80005708D0E746EA06464FEA164613F1400FC8
:102E90001FDD13F1200FDFBF16430A460021203348
:102EA0005B42BED0C3F1200746EA06464FEA16460B
:102EB00002FA07F746EA070622FA03F2C3F12007EF
:102EC00001FA07F742EA070221FA03F14FF0000383
:102ED000A7E746EA020646EA06464FEA164646EAEB
:102EE0000106BCBF46EA0646360C4FF000034FF021
:102EF00000024FF0000194E72DE9804C70B49A462F
:102F0000934691E8380007C831EA400C48BF34EADC
:102F1000430C03D5FFF7E6FDFFF780FFF0BCBDE8EB
:102F2000008C2DE9804C70B49A46934691E83800A5
:102F300007C810F0804F08BF13F0804F03D100F096
:102F400005F8FFF76BFFF0BCBDE8008C20F07F4771
:102F500023F07F4C80EA030000F0004007EB0C03F5
:102F6000A3F57C53A3F1FE0392F0000F00F0B380B1
:102F700095F0000F00F077802DE901494FEA1140EC
:102F800021EA00484FEA144624EA064700FB06FC03
:102F900008FB06F607FB08F818EB06484CEB164C46
:102FA00000FB07F718EB07484CEB17404FEA124BB2
:102FB00022EA0B4E4FEA154625EA06470BFB06FCB4
:102FC0000EFB06F607FB0EFE1EEB064E4CEB164CF8
:102FD0000BFB07F71EEB074E4CEB174B18EB0B08E0
:102FE00040F1000018EB0E0B58EB000840F1000018
:102FF0008F1A4FF000014FF000063CBFC943661B1B
:1030000014BFB5EB040C00213CBFC943F61B4FEACB
:10301000174427EA04454FEA1C472CEA074C04FBF7
:10302000076205FB07F70CFB05F616EB074642EBBC
:10303000174204FB0CFC16EB0C4642EB1C421BEB4C
:10304000060658EB020241414EEA8E0E46EA9E0603
:1030500001D5BDE80189B619524141EB0101A3F147
:103060000103BDE801894FEA144524EA05464FEA09
:10307000114721EA074C05FB07F406FB07F70CFB99
:1030800006F111EB074144EB174405FB0CFC11EB77
:103090000C4144EB1C444FEA124722EA074C05FB63
:1030A00007F206FB07F70CFB06F616EB074642EBAA
:1030B000174205FB0CFC16EB0C4642EB1C456A184C
:1030C00054F1000148BF7047B619524141EB01016C
:1030D000A3F10103704795F0000F37D04FEA11427A
:1030E00021EA02464FEA144724EA074C02FB07F1A3
:1030F00006FB07F70CFB06F414EB074441EB174102
:1031000002FB0CFC14EB0C4441EB1C414FEA15474D
:1031100025EA074C02FB07F506FB07F70CFB06F652
:1031200016EB074645EB174502FB0CFC16EB0C466D
:1031300045EB1C42121951F1000148BF7047B61906
:10314000524141EB0101A3F1010370474FEA1445DD
:1031500024EA05464FEA114721EA074C05FB07F12F
:1031600006FB07F70CFB06F212EB074241EB174197
:1031700005FB0CFC12EB0C4251EB1C414FF000061E
:1031800048BF7047921841EB0101A3F1010370475A
:10319000490050EAC12018BF04204A0D18BF40F072
:1031A000010040F2FF72B2EB515F08BF40F0020035
:1031B000012808BF0520704730380A2801D20120B5
:1031C000704700207047000010B500290AD0087829
:1031D000002807D005487844FEF7DAF8002801D027
:1031E000002010BD0248784410BD0000DE01000040
:1031F000D601000010B500290AD00878002807D0B1
:1032000005487844FEF7C4F8002801D0002010BD1E
:103210000248784410BD0000CE010000C601000045
:10322000FDF7C0BCFDF7F4BD000000000000000089
:1032300030313233343536373839414243444546EC
:1032400040305800303132333435363738396162E6
:1032500063646566403078000400000800000000E8
:1032600000000002000100001030313233343536E6
:1032700037383961626364656678700030313233A3
:1032800034353637383941424344454658500000BA
:1032900002400000000000A0000000000540000007
:1032A000000000C8000000000C4000000000409C2E
:1032B00000000000194000000020BCBE000000001B
:1032C00034400000BFC91B8E00000004B540000060
:1032D000504BCFD06607E2CF010000006C410000E8
:1032E0003E8251AADFEEA73401000000D94200005F
:1032F000DCB5A0E23A301F97FFFFFFFFB4450000A6
:10330000FD25A0C8E9A3C14FFFFFFFFFFF3F00005D
:103310000000008000000000FF3F0000000000806F
:10332000000000000204060800000000010203047F
:1033300001020304060708092D2A2D5E2D5E2A2DA1
:10334000005E2D5E0025630069276D2066726F6D3B
:1033500020486154696E6800736F6F6E0068656C19
:103360006C6F2C206D79206E616D6520697300741F
:1033700068616E6B732C73656520750020202020BA
:10338000202020202020202020202020202020203D
:1033900000000000E03400080000002010000000E1
:1033A00094010008F034000810000020E806000036
:1033B000B40100081C00000043000000F8FFFFFFFC
:1033C0000C0000000E0000000F0000002E000000A6
:1033D0001001000043000000F8FFFFFF00404040E4
:1033E00040404040404041414141414040404040D8
:1033F0004040404040404040404040404005020284
:103400000202020202020202020202020220202042
:10341000202020202020200202020202020290909E
:10342000909090901010101010101010101010109C
:1034300010101010101010100202020202028888F0
:1034400088888888080808080808080808080808FC
:1034500008080808080808080202020240000000E4
:10346000000000000000000000000000000000005C
:10347000000000000000000000000000000000004C
:10348000000000000000000000000000000000003C
:10349000000000000000000000000000000000002C
:1034A000000000000000000000000000000000001C
:1034B000000000000000000000000000000000000C
:1034C00000000000000000000000000000000000FC
:1034D00000000000000000000000000000000000EC
:1034E00048612048757920486F616E6700000000D0
:04000005080002A548
:00000001FF
