:020000040800F2
:1000000068060020B5010008BD010008BF01000816
:10001000C1010008C3010008C5010008000000007C
:10002000000000000000000000000000C701000800
:10003000C901000800000000CB010008CD01000844
:10004000CF010008CF010008CF010008CF01000850
:10005000CF010008CF010008CF010008CF01000840
:10006000CF010008CF010008CF010008CF01000830
:10007000CF010008CF010008CF010008CF01000820
:10008000CF010008CF010008CF010008CF01000810
:10009000CF010008CF010008CF010008CF01000800
:1000A000CF010008CF010008CF010008CF010008F0
:1000B000CF010008CF010008CF010008CF010008E0
:1000C000CF010008CF010008CF010008CF010008D0
:1000D000CF010008CF010008CF010008CF010008C0
:1000E000CF010008CF010008CF01000800F002F89E
:1000F00000F050F814A696E8000CB244B344DA4578
:1001000001D100F047F8BAE80F000FA696E83000DA
:10011000A5EB040504EB0607AAEB0704A7F101070A
:100120004FEA15154FEA3414A4F10104AC4201D38F
:1001300000F030F813F0010F18BFFB1A43F0010371
:1001400000F001F8DBE71847F8040000180500008C
:10015000103A24BF78C878C1FAD8520724BF30C8F3
:1001600030C144BF04680C60704700007047000055
:100170000023002400250026103A28BF78C1FBD8B0
:10018000520728BF30C148BF0B6070471FB51FBD65
:1001900010B510BD00F031F81146FFF7F7FF00F081
:1001A0001DFA00F04FF803B4FFF7F2FF03BC00F0B4
:1001B00057F800000948804709480047FEE7FEE776
:1001C000FEE7FEE7FEE7FEE7FEE7FEE7FEE7FEE707
:1001D00004480549054A064B7047000075050008AC
:1001E000ED0000086800002068060020680200207A
:1001F00068020020704770477047754600F02CF881
:10020000AE4605006946534620F00700854618B003
:1002100020B5FFF7DDFFBDE820404FF000064FF0AE
:1002200000074FF000084FF0000BAC46ACE8C009E7
:10023000ACE8C009ACE8C009ACE8C00921F007018E
:100240008D46704710B50446AFF300802046BDE8E8
:100250001040FFF7A8BF00000048704708000020CA
:1002600001491820ABBEFEE72600020070470000DF
:1002700085B00390ADF80A10019200200090BDF8FF
:100280000A0018B1FFE7019820B9FFE700208DF8B8
:10029000130016E000200090FFE7009801998842C3
:1002A0000BD2FFE70398009A805ABDF80A108852D3
:1002B000FFE7009801300090EFE701208DF8130070
:1002C000FFE79DF8130005B07047000080B586B0C9
:1002D0000490ADF80E10029200200190BDF80E00BF
:1002E00040B1FFE7029828B1FFE79DF80800C0077A
:1002F00020B1FFE700208DF817004AE0FFE742F247
:100300000C00C4F202000068C00708B1FFE7F6E77E
:1003100042F21000C4F2020000680006002803D573
:10032000FFE700F081F8FFE742F21001C4F202019A
:10033000086840F00100086000200190FFE7019884
:100340000299B0EB510F0ED2FFE7BDF80E000199F4
:1003500030F811000499019A21F81200FFE7019882
:1003600001300190EBE7FFE742F20C00C4F202001B
:100370000068C00708B1FFE7F6E742F21001C4F2D7
:100380000201086820F00100086001208DF81700C4
:10039000FFE79DF8170006B080BD000080B582B071
:1003A0000190FFE742F20C00C4F202000068C007AF
:1003B00008B1FFE7F6E742F21000C4F2020000685D
:1003C0000006002803D5FFE700F02EF8FFE742F211
:1003D0001001C4F20201086840F002000860019BAD
:1003E00042F21402C4F20202106818431060086856
:1003F00040F040000860FFE742F20C00C4F2020047
:100400000068C00708B1FFE7F6E742F21001C4F246
:100410000201086820F002000860086820F040002F
:10042000086002B080BD000042F20401C4F2020183
:1004300040F22310C4F26750086048F6AB10CCF6C7
:10044000EF5008607047000080B500F001F880BDF3
:1004500084B000200390029041F20001C4F2020136
:10046000086840F480300860FFE741F20000C4F201
:100470000200006800F400300290039801300390FD
:10048000FFE702990020019039B9FFE70398B0F522
:10049000A06018BF01200190FFE70198C007002865
:1004A000E3D1FFE741F20000C4F2020000688003DC
:1004B000002803D5FFE70120029002E0002002900F
:1004C000FFE70298012851D1FFE742F20001C4F290
:1004D0000201086840F010000860086820F007007A
:1004E0000860086840F00200086041F20401C4F2AC
:1004F000020100910868086008680860086840F414
:1005000080600860086820F47C100860086840F487
:10051000E810086041F20001C4F20201086840F0EE
:1005200080700860FFE741F20000C4F2020000683A
:100530008001002801D4FFE7F5E741F20401C4F28D
:100540000201086820F003000860086840F002001B
:100550000860FFE741F20400C4F20200006800F006
:100560000C00082801D0FFE7F4E700E0FFE704B043
:100570007047000080B541F20002C4F20202106828
:1005800040F00100106041F20401C4F20201086869
:100590000023CFF6FF031840086010684FF6FF7382
:1005A000CFF6F66318401060106820F480201060C9
:1005B000086820F4FE00086041F20801C4F202015C
:1005C0004FF41F000860FFF73FFF4EF60851CEF2D0
:1005D00000014FF00060086080BD000080B582B06F
:1005E000002001904AF20000C0F600000090FFF7E2
:1005F000D5FE009840F20001C2F2000109880422F1
:10060000FFF764FE012802D0FFE7FFE7FEE740F2B4
:100610000000C2F2000001884AF20000C0F60000AB
:100620000222FFF725FE10B1FFE7FFE7FEE74AF2DF
:100630000000C0F60000FFF7B1FE002002B080BD50
:1006400060060008000000200400000050010008BF
:100650006406000808000020600600007001000821
:04066000F82A000074
:04000005080001B539
:00000001FF
